{
  "contractName": "QrCode",
  "abi": [
    {
      "inputs": [],
      "stateMutability": "nonpayable",
      "type": "constructor"
    },
    {
      "anonymous": false,
      "inputs": [
        {
          "indexed": true,
          "internalType": "uint256",
          "name": "id",
          "type": "uint256"
        }
      ],
      "name": "ItemAdded",
      "type": "event"
    },
    {
      "anonymous": false,
      "inputs": [
        {
          "indexed": true,
          "internalType": "uint256",
          "name": "id",
          "type": "uint256"
        },
        {
          "indexed": false,
          "internalType": "string",
          "name": "itemName",
          "type": "string"
        },
        {
          "indexed": false,
          "internalType": "string",
          "name": "description",
          "type": "string"
        }
      ],
      "name": "ItemDetailsUpdated",
      "type": "event"
    },
    {
      "anonymous": false,
      "inputs": [
        {
          "indexed": true,
          "internalType": "uint256",
          "name": "id",
          "type": "uint256"
        }
      ],
      "name": "ItemRecorded",
      "type": "event"
    },
    {
      "anonymous": false,
      "inputs": [
        {
          "indexed": true,
          "internalType": "address",
          "name": "manufacturer",
          "type": "address"
        }
      ],
      "name": "ManufacturerAdded",
      "type": "event"
    },
    {
      "anonymous": false,
      "inputs": [
        {
          "indexed": true,
          "internalType": "address",
          "name": "retailer",
          "type": "address"
        }
      ],
      "name": "RetailerAdded",
      "type": "event"
    },
    {
      "anonymous": false,
      "inputs": [
        {
          "indexed": true,
          "internalType": "address",
          "name": "retailer",
          "type": "address"
        }
      ],
      "name": "RetailerRemoved",
      "type": "event"
    },
    {
      "inputs": [
        {
          "internalType": "uint256",
          "name": "",
          "type": "uint256"
        }
      ],
      "name": "itemDetails",
      "outputs": [
        {
          "internalType": "string",
          "name": "itemName",
          "type": "string"
        },
        {
          "internalType": "string",
          "name": "description",
          "type": "string"
        }
      ],
      "stateMutability": "view",
      "type": "function",
      "constant": true
    },
    {
      "inputs": [
        {
          "internalType": "address",
          "name": "",
          "type": "address"
        }
      ],
      "name": "manufacturerDetails",
      "outputs": [
        {
          "internalType": "address",
          "name": "manufacturer",
          "type": "address"
        },
        {
          "internalType": "string",
          "name": "name",
          "type": "string"
        },
        {
          "internalType": "string",
          "name": "location",
          "type": "string"
        },
        {
          "internalType": "string",
          "name": "email",
          "type": "string"
        },
        {
          "internalType": "uint256",
          "name": "phoneNumber",
          "type": "uint256"
        },
        {
          "internalType": "bool",
          "name": "isSignedUp",
          "type": "bool"
        }
      ],
      "stateMutability": "view",
      "type": "function",
      "constant": true
    },
    {
      "inputs": [
        {
          "internalType": "address",
          "name": "",
          "type": "address"
        },
        {
          "internalType": "address",
          "name": "",
          "type": "address"
        }
      ],
      "name": "manufacturerToRetailerDetails",
      "outputs": [
        {
          "internalType": "address",
          "name": "retailer",
          "type": "address"
        },
        {
          "internalType": "uint256",
          "name": "retailerID",
          "type": "uint256"
        },
        {
          "internalType": "string",
          "name": "name",
          "type": "string"
        },
        {
          "internalType": "string",
          "name": "location",
          "type": "string"
        },
        {
          "internalType": "string",
          "name": "email",
          "type": "string"
        },
        {
          "internalType": "uint256",
          "name": "phoneNumber",
          "type": "uint256"
        }
      ],
      "stateMutability": "view",
      "type": "function",
      "constant": true
    },
    {
      "inputs": [],
      "name": "owner",
      "outputs": [
        {
          "internalType": "address",
          "name": "",
          "type": "address"
        }
      ],
      "stateMutability": "view",
      "type": "function",
      "constant": true
    },
    {
      "inputs": [
        {
          "internalType": "uint256",
          "name": "",
          "type": "uint256"
        }
      ],
      "name": "qrHashArr",
      "outputs": [
        {
          "internalType": "uint256",
          "name": "",
          "type": "uint256"
        }
      ],
      "stateMutability": "view",
      "type": "function",
      "constant": true
    },
    {
      "inputs": [
        {
          "internalType": "string",
          "name": "",
          "type": "string"
        }
      ],
      "name": "recordedItems",
      "outputs": [
        {
          "internalType": "bool",
          "name": "",
          "type": "bool"
        }
      ],
      "stateMutability": "view",
      "type": "function",
      "constant": true
    },
    {
      "inputs": [
        {
          "internalType": "string",
          "name": "",
          "type": "string"
        }
      ],
      "name": "retailerDetails",
      "outputs": [
        {
          "internalType": "address",
          "name": "retailer",
          "type": "address"
        },
        {
          "internalType": "uint256",
          "name": "retailerID",
          "type": "uint256"
        },
        {
          "internalType": "string",
          "name": "name",
          "type": "string"
        },
        {
          "internalType": "string",
          "name": "location",
          "type": "string"
        },
        {
          "internalType": "string",
          "name": "email",
          "type": "string"
        },
        {
          "internalType": "uint256",
          "name": "phoneNumber",
          "type": "uint256"
        }
      ],
      "stateMutability": "view",
      "type": "function",
      "constant": true
    },
    {
      "inputs": [
        {
          "internalType": "address",
          "name": "",
          "type": "address"
        }
      ],
      "name": "sysOwnerMap",
      "outputs": [
        {
          "internalType": "address",
          "name": "sysOwner",
          "type": "address"
        },
        {
          "internalType": "string",
          "name": "password",
          "type": "string"
        },
        {
          "internalType": "bool",
          "name": "isLogin",
          "type": "bool"
        }
      ],
      "stateMutability": "view",
      "type": "function",
      "constant": true
    },
    {
      "inputs": [],
      "name": "sysowner",
      "outputs": [
        {
          "internalType": "address",
          "name": "sysOwner",
          "type": "address"
        },
        {
          "internalType": "string",
          "name": "password",
          "type": "string"
        },
        {
          "internalType": "bool",
          "name": "isLogin",
          "type": "bool"
        }
      ],
      "stateMutability": "view",
      "type": "function",
      "constant": true
    },
    {
      "inputs": [
        {
          "internalType": "address",
          "name": "_address",
          "type": "address"
        }
      ],
      "name": "transerOwership",
      "outputs": [],
      "stateMutability": "nonpayable",
      "type": "function"
    },
    {
      "inputs": [
        {
          "internalType": "string",
          "name": "_manfName",
          "type": "string"
        },
        {
          "internalType": "string",
          "name": "_location",
          "type": "string"
        },
        {
          "internalType": "string",
          "name": "_email",
          "type": "string"
        },
        {
          "internalType": "uint256",
          "name": "_phoneNumber",
          "type": "uint256"
        }
      ],
      "name": "signUp",
      "outputs": [],
      "stateMutability": "nonpayable",
      "type": "function"
    },
    {
      "inputs": [
        {
          "internalType": "string",
          "name": "_password",
          "type": "string"
        }
      ],
      "name": "loginSysOwner",
      "outputs": [
        {
          "internalType": "bool",
          "name": "",
          "type": "bool"
        }
      ],
      "stateMutability": "nonpayable",
      "type": "function"
    },
    {
      "inputs": [
        {
          "internalType": "string",
          "name": "_qrHash",
          "type": "string"
        }
      ],
      "name": "storeQrHash",
      "outputs": [],
      "stateMutability": "nonpayable",
      "type": "function"
    },
    {
      "inputs": [],
      "name": "getQrHashList",
      "outputs": [
        {
          "internalType": "uint256[]",
          "name": "",
          "type": "uint256[]"
        }
      ],
      "stateMutability": "view",
      "type": "function",
      "constant": true
    },
    {
      "inputs": [
        {
          "internalType": "uint256",
          "name": "_indeId",
          "type": "uint256"
        }
      ],
      "name": "getQrHash",
      "outputs": [
        {
          "internalType": "string",
          "name": "_qrHash",
          "type": "string"
        }
      ],
      "stateMutability": "view",
      "type": "function",
      "constant": true
    },
    {
      "inputs": [
        {
          "internalType": "address",
          "name": "_retailer",
          "type": "address"
        },
        {
          "internalType": "string",
          "name": "_name",
          "type": "string"
        },
        {
          "internalType": "string",
          "name": "_location",
          "type": "string"
        },
        {
          "internalType": "string",
          "name": "_email",
          "type": "string"
        },
        {
          "internalType": "uint256",
          "name": "_phoneNumber",
          "type": "uint256"
        }
      ],
      "name": "addRetailerInfo",
      "outputs": [],
      "stateMutability": "nonpayable",
      "type": "function"
    },
    {
      "inputs": [
        {
          "internalType": "address",
          "name": "_retailer",
          "type": "address"
        }
      ],
      "name": "removeRetailer",
      "outputs": [],
      "stateMutability": "nonpayable",
      "type": "function"
    },
    {
      "inputs": [
        {
          "internalType": "string",
          "name": "_qrHash",
          "type": "string"
        },
        {
          "internalType": "string",
          "name": "_itemName",
          "type": "string"
        },
        {
          "internalType": "string",
          "name": "_description",
          "type": "string"
        }
      ],
      "name": "addItemDetails",
      "outputs": [],
      "stateMutability": "nonpayable",
      "type": "function"
    },
    {
      "inputs": [
        {
          "internalType": "string",
          "name": "_qrHash",
          "type": "string"
        }
      ],
      "name": "scanItem",
      "outputs": [
        {
          "internalType": "bool",
          "name": "",
          "type": "bool"
        }
      ],
      "stateMutability": "view",
      "type": "function",
      "constant": true
    }
  ],
  "bytecode": "0x60806040523480156200001157600080fd5b50336000806101000a81548173ffffffffffffffffffffffffffffffffffffffff021916908373ffffffffffffffffffffffffffffffffffffffff160217905550604051806060016040528060008054906101000a900473ffffffffffffffffffffffffffffffffffffffff1673ffffffffffffffffffffffffffffffffffffffff1681526020016040518060400160405280600581526020017f61646d696e000000000000000000000000000000000000000000000000000000815250815260200160001515815250600b60008201518160000160006101000a81548173ffffffffffffffffffffffffffffffffffffffff021916908373ffffffffffffffffffffffffffffffffffffffff16021790555060208201518160010190816200013b9190620004ef565b5060408201518160020160006101000a81548160ff021916908315150217905550905050600b600960008060009054906101000a900473ffffffffffffffffffffffffffffffffffffffff1673ffffffffffffffffffffffffffffffffffffffff1673ffffffffffffffffffffffffffffffffffffffff1681526020019081526020016000206000820160009054906101000a900473ffffffffffffffffffffffffffffffffffffffff168160000160006101000a81548173ffffffffffffffffffffffffffffffffffffffff021916908373ffffffffffffffffffffffffffffffffffffffff160217905550600182018160010190816200023e9190620005ee565b506002820160009054906101000a900460ff168160020160006101000a81548160ff021916908315150217905550905050620006ef565b600081519050919050565b7f4e487b7100000000000000000000000000000000000000000000000000000000600052604160045260246000fd5b7f4e487b7100000000000000000000000000000000000000000000000000000000600052602260045260246000fd5b60006002820490506001821680620002f757607f821691505b6020821081036200030d576200030c620002af565b5b50919050565b60008190508160005260206000209050919050565b60006020601f8301049050919050565b600082821b905092915050565b600060088302620003777fffffffffffffffffffffffffffffffffffffffffffffffffffffffffffffffff8262000338565b62000383868362000338565b95508019841693508086168417925050509392505050565b6000819050919050565b6000819050919050565b6000620003d0620003ca620003c4846200039b565b620003a5565b6200039b565b9050919050565b6000819050919050565b620003ec83620003af565b62000404620003fb82620003d7565b84845462000345565b825550505050565b600090565b6200041b6200040c565b62000428818484620003e1565b505050565b5b8181101562000450576200044460008262000411565b6001810190506200042e565b5050565b601f8211156200049f57620004698162000313565b620004748462000328565b8101602085101562000484578190505b6200049c620004938562000328565b8301826200042d565b50505b505050565b600082821c905092915050565b6000620004c460001984600802620004a4565b1980831691505092915050565b6000620004df8383620004b1565b9150826002028217905092915050565b620004fa8262000275565b67ffffffffffffffff81111562000516576200051562000280565b5b620005228254620002de565b6200052f82828562000454565b600060209050601f83116001811462000567576000841562000552578287015190505b6200055e8582620004d1565b865550620005ce565b601f198416620005778662000313565b60005b82811015620005a1578489015182556001820191506020850194506020810190506200057a565b86831015620005c15784890151620005bd601f891682620004b1565b8355505b6001600288020188555050505b505050505050565b600081549050620005e781620002de565b9050919050565b818103620005fe575050620006ed565b6200060982620005d6565b67ffffffffffffffff81111562000625576200062462000280565b5b620006318254620002de565b6200063e82828562000454565b6000601f8311600181146200067257600084156200065d578287015490505b620006698582620004d1565b865550620006e6565b601f198416620006828762000313565b96506200068f8662000313565b60005b82811015620006b95784890154825560018201915060018501945060208101905062000692565b86831015620006d95784890154620006d5601f891682620004b1565b8355505b6001600288020188555050505b5050505050505b565b6131c080620006ff6000396000f3fe608060405234801561001057600080fd5b50600436106101215760003560e01c80638fd6a8cf116100ad578063e382bf7011610071578063e382bf701461034b578063e38483a31461037b578063ef4834f814610397578063f3b21854146103c9578063fe244c37146103e757610121565b80638fd6a8cf146102895780639793dbf3146102be578063bd5128cc146102da578063de5df398146102f6578063e32a4e461461032b57610121565b8063477c74c1116100f4578063477c74c1146101e75780636030775e1461020357806370099ec81461023357806385ff2fd21461024f5780638da5cb5b1461026b57610121565b80631fb4e3f01461012657806324f2fc0c146101575780633dd1023d146101875780634329550c146101b7575b600080fd5b610140600480360381019061013b9190612008565b61041c565b60405161014e9291906120c5565b60405180910390f35b610171600480360381019061016c9190612008565b610550565b60405161017e919061210b565b60405180910390f35b6101a1600480360381019061019c919061225b565b610574565b6040516101ae91906122bf565b60405180910390f35b6101d160048036038101906101cc919061225b565b61077c565b6040516101de91906122bf565b60405180910390f35b61020160048036038101906101fc91906122da565b6107b2565b005b61021d6004803603810190610218919061225b565b610988565b60405161022a91906122bf565b60405180910390f35b61024d600480360381019061024891906123df565b6109ce565b005b6102696004803603810190610264919061240c565b610d9d565b005b610273611064565b60405161028091906124d6565b60405180910390f35b6102a3600480360381019061029e919061225b565b611088565b6040516102b5969594939291906124f1565b60405180910390f35b6102d860048036038101906102d391906123df565b611292565b005b6102f460048036038101906102ef9190612567565b611363565b005b610310600480360381019061030b9190612636565b61177b565b604051610322969594939291906124f1565b60405180910390f35b61033361197c565b60405161034293929190612676565b60405180910390f35b61036560048036038101906103609190612008565b611a49565b60405161037291906126b4565b60405180910390f35b6103956004803603810190610390919061225b565b611aee565b005b6103b160048036038101906103ac91906123df565b611bd0565b6040516103c093929190612676565b60405180910390f35b6103d1611caf565b6040516103de9190612794565b60405180910390f35b61040160048036038101906103fc91906123df565b611d07565b604051610413969594939291906127b6565b60405180910390f35b600660205280600052604060002060009150905080600001805461043f9061285b565b80601f016020809104026020016040519081016040528092919081815260200182805461046b9061285b565b80156104b85780601f1061048d576101008083540402835291602001916104b8565b820191906000526020600020905b81548152906001019060200180831161049b57829003601f168201915b5050505050908060010180546104cd9061285b565b80601f01602080910402602001604051908101604052809291908181526020018280546104f99061285b565b80156105465780601f1061051b57610100808354040283529160200191610546565b820191906000526020600020905b81548152906001019060200180831161052957829003601f168201915b5050505050905082565b600a818154811061056057600080fd5b906000526020600020016000915090505481565b60008060009054906101000a900473ffffffffffffffffffffffffffffffffffffffff1673ffffffffffffffffffffffffffffffffffffffff163373ffffffffffffffffffffffffffffffffffffffff1614610605576040517f08c379a00000000000000000000000000000000000000000000000000000000081526004016105fc906128fe565b60405180910390fd5b6106d9600960003373ffffffffffffffffffffffffffffffffffffffff1673ffffffffffffffffffffffffffffffffffffffff16815260200190815260200160002060010180546106559061285b565b80601f01602080910402602001604051908101604052809291908181526020018280546106819061285b565b80156106ce5780601f106106a3576101008083540402835291602001916106ce565b820191906000526020600020905b8154815290600101906020018083116106b157829003601f168201915b505050505083611f08565b610718576040517f08c379a000000000000000000000000000000000000000000000000000000000815260040161070f90612990565b60405180910390fd5b6001600960003373ffffffffffffffffffffffffffffffffffffffff1673ffffffffffffffffffffffffffffffffffffffff16815260200190815260200160002060020160006101000a81548160ff02191690831515021790555060019050919050565b6007818051602081018201805184825260208301602085012081835280955050505050506000915054906101000a900460ff1681565b600360003373ffffffffffffffffffffffffffffffffffffffff1673ffffffffffffffffffffffffffffffffffffffff16815260200190815260200160002060050160009054906101000a900460ff16610841576040517f08c379a000000000000000000000000000000000000000000000000000000000815260040161083890612a22565b60405180910390fd5b6002547f186760a37e06b130959978c68b5c592841caf4f64de1dc960b2c54cf454ca9dd60405160405180910390a26002547fc40b4fd4fc7e11f0a3b712073e4ccb984f6ba0dc1a6b95bf2e84d3dcd301115e83836040516108a49291906120c5565b60405180910390a26002547ff0a826a8cafb62b616a6fcc2766fcfb5293f3fd1b47f06610616b9a948ba08d760405160405180910390a2600260008154809291906108ee90612a71565b919050555060405180604001604052808381526020018281525060066000600254815260200190815260200160002060008201518160000190816109329190612c65565b5060208201518160010190816109489190612c65565b50905050600160078460405161095e9190612d73565b908152602001604051809103902060006101000a81548160ff021916908315150217905550505050565b600060078260405161099a9190612d73565b908152602001604051809103902060009054906101000a900460ff16156109c457600190506109c9565b600090505b919050565b600360003373ffffffffffffffffffffffffffffffffffffffff1673ffffffffffffffffffffffffffffffffffffffff16815260200190815260200160002060050160009054906101000a900460ff16610a5d576040517f08c379a0000000000000000000000000000000000000000000000000000000008152600401610a5490612a22565b60405180910390fd5b600073ffffffffffffffffffffffffffffffffffffffff16600460003373ffffffffffffffffffffffffffffffffffffffff1673ffffffffffffffffffffffffffffffffffffffff16815260200190815260200160002060008373ffffffffffffffffffffffffffffffffffffffff1673ffffffffffffffffffffffffffffffffffffffff16815260200190815260200160002060000160009054906101000a900473ffffffffffffffffffffffffffffffffffffffff1673ffffffffffffffffffffffffffffffffffffffff1603610b6b576040517f08c379a0000000000000000000000000000000000000000000000000000000008152600401610b6290612dd6565b60405180910390fd5b8073ffffffffffffffffffffffffffffffffffffffff167fdb7176e79cffef81cb01767dd0447a0b24bb72ca9778d4b245581086b2a7e6db60405160405180910390a2600460003373ffffffffffffffffffffffffffffffffffffffff1673ffffffffffffffffffffffffffffffffffffffff16815260200190815260200160002060008273ffffffffffffffffffffffffffffffffffffffff1673ffffffffffffffffffffffffffffffffffffffff168152602001908152602001600020600080820160006101000a81549073ffffffffffffffffffffffffffffffffffffffff02191690556001820160009055600282016000610c6a9190611f61565b600382016000610c7a9190611f61565b600482016000610c8a9190611f61565b600582016000905550506005600460003373ffffffffffffffffffffffffffffffffffffffff1673ffffffffffffffffffffffffffffffffffffffff16815260200190815260200160002060008373ffffffffffffffffffffffffffffffffffffffff1673ffffffffffffffffffffffffffffffffffffffff168152602001908152602001600020600201604051610d229190612e79565b9081526020016040518091039020600080820160006101000a81549073ffffffffffffffffffffffffffffffffffffffff02191690556001820160009055600282016000610d709190611f61565b600382016000610d809190611f61565b600482016000610d909190611f61565b6005820160009055505050565b600073ffffffffffffffffffffffffffffffffffffffff163373ffffffffffffffffffffffffffffffffffffffff1603610e0c576040517f08c379a0000000000000000000000000000000000000000000000000000000008152600401610e0390612edc565b60405180910390fd5b600360003373ffffffffffffffffffffffffffffffffffffffff1673ffffffffffffffffffffffffffffffffffffffff16815260200190815260200160002060050160009054906101000a900460ff1615610e9c576040517f08c379a0000000000000000000000000000000000000000000000000000000008152600401610e9390612f6e565b60405180910390fd5b6000845111610ee0576040517f08c379a0000000000000000000000000000000000000000000000000000000008152600401610ed790613000565b60405180910390fd5b3373ffffffffffffffffffffffffffffffffffffffff167f561138658ca49a8540dc70dcfe64c9026c1c5b9344642242dd6562970f9c127860405160405180910390a26040518060c001604052803373ffffffffffffffffffffffffffffffffffffffff16815260200185815260200184815260200183815260200182815260200160011515815250600360003373ffffffffffffffffffffffffffffffffffffffff1673ffffffffffffffffffffffffffffffffffffffff16815260200190815260200160002060008201518160000160006101000a81548173ffffffffffffffffffffffffffffffffffffffff021916908373ffffffffffffffffffffffffffffffffffffffff16021790555060208201518160010190816110049190612c65565b50604082015181600201908161101a9190612c65565b5060608201518160030190816110309190612c65565b506080820151816004015560a08201518160050160006101000a81548160ff02191690831515021790555090505050505050565b60008054906101000a900473ffffffffffffffffffffffffffffffffffffffff1681565b6005818051602081018201805184825260208301602085012081835280955050505050506000915090508060000160009054906101000a900473ffffffffffffffffffffffffffffffffffffffff16908060010154908060020180546110ed9061285b565b80601f01602080910402602001604051908101604052809291908181526020018280546111199061285b565b80156111665780601f1061113b57610100808354040283529160200191611166565b820191906000526020600020905b81548152906001019060200180831161114957829003601f168201915b50505050509080600301805461117b9061285b565b80601f01602080910402602001604051908101604052809291908181526020018280546111a79061285b565b80156111f45780601f106111c9576101008083540402835291602001916111f4565b820191906000526020600020905b8154815290600101906020018083116111d757829003601f168201915b5050505050908060040180546112099061285b565b80601f01602080910402602001604051908101604052809291908181526020018280546112359061285b565b80156112825780601f1061125757610100808354040283529160200191611282565b820191906000526020600020905b81548152906001019060200180831161126557829003601f168201915b5050505050908060050154905086565b60008054906101000a900473ffffffffffffffffffffffffffffffffffffffff1673ffffffffffffffffffffffffffffffffffffffff163373ffffffffffffffffffffffffffffffffffffffff1614611320576040517f08c379a0000000000000000000000000000000000000000000000000000000008152600401611317906128fe565b60405180910390fd5b806000806101000a81548173ffffffffffffffffffffffffffffffffffffffff021916908373ffffffffffffffffffffffffffffffffffffffff16021790555050565b600360003373ffffffffffffffffffffffffffffffffffffffff1673ffffffffffffffffffffffffffffffffffffffff16815260200190815260200160002060050160009054906101000a900460ff166113f2576040517f08c379a00000000000000000000000000000000000000000000000000000000081526004016113e990612a22565b60405180910390fd5b600073ffffffffffffffffffffffffffffffffffffffff168573ffffffffffffffffffffffffffffffffffffffff1603611461576040517f08c379a00000000000000000000000000000000000000000000000000000000081526004016114589061306c565b60405180910390fd5b8473ffffffffffffffffffffffffffffffffffffffff167f71ae26cad02663e3d92efd6ec56031a80d74a20c0ab4183faa8bf262261c9baa60405160405180910390a2600160008154809291906114b790612a71565b91905055506040518060c001604052808673ffffffffffffffffffffffffffffffffffffffff168152602001600154815260200185815260200184815260200183815260200182815250600460003373ffffffffffffffffffffffffffffffffffffffff1673ffffffffffffffffffffffffffffffffffffffff16815260200190815260200160002060008773ffffffffffffffffffffffffffffffffffffffff1673ffffffffffffffffffffffffffffffffffffffff16815260200190815260200160002060008201518160000160006101000a81548173ffffffffffffffffffffffffffffffffffffffff021916908373ffffffffffffffffffffffffffffffffffffffff1602179055506020820151816001015560408201518160020190816115e39190612c65565b5060608201518160030190816115f99190612c65565b50608082015181600401908161160f9190612c65565b5060a08201518160050155905050600460003373ffffffffffffffffffffffffffffffffffffffff1673ffffffffffffffffffffffffffffffffffffffff16815260200190815260200160002060008673ffffffffffffffffffffffffffffffffffffffff1673ffffffffffffffffffffffffffffffffffffffff1681526020019081526020016000206005856040516116a99190612d73565b90815260200160405180910390206000820160009054906101000a900473ffffffffffffffffffffffffffffffffffffffff168160000160006101000a81548173ffffffffffffffffffffffffffffffffffffffff021916908373ffffffffffffffffffffffffffffffffffffffff160217905550600182015481600101556002820181600201908161173c91906130a2565b506003820181600301908161175191906130a2565b506004820181600401908161176691906130a2565b50600582015481600501559050505050505050565b6004602052816000526040600020602052806000526040600020600091509150508060000160009054906101000a900473ffffffffffffffffffffffffffffffffffffffff16908060010154908060020180546117d79061285b565b80601f01602080910402602001604051908101604052809291908181526020018280546118039061285b565b80156118505780601f1061182557610100808354040283529160200191611850565b820191906000526020600020905b81548152906001019060200180831161183357829003601f168201915b5050505050908060030180546118659061285b565b80601f01602080910402602001604051908101604052809291908181526020018280546118919061285b565b80156118de5780601f106118b3576101008083540402835291602001916118de565b820191906000526020600020905b8154815290600101906020018083116118c157829003601f168201915b5050505050908060040180546118f39061285b565b80601f016020809104026020016040519081016040528092919081815260200182805461191f9061285b565b801561196c5780601f106119415761010080835404028352916020019161196c565b820191906000526020600020905b81548152906001019060200180831161194f57829003601f168201915b5050505050908060050154905086565b600b8060000160009054906101000a900473ffffffffffffffffffffffffffffffffffffffff16908060010180546119b39061285b565b80601f01602080910402602001604051908101604052809291908181526020018280546119df9061285b565b8015611a2c5780601f10611a0157610100808354040283529160200191611a2c565b820191906000526020600020905b815481529060010190602001808311611a0f57829003601f168201915b5050505050908060020160009054906101000a900460ff16905083565b6060600860008381526020019081526020016000208054611a699061285b565b80601f0160208091040260200160405190810160405280929190818152602001828054611a959061285b565b8015611ae25780601f10611ab757610100808354040283529160200191611ae2565b820191906000526020600020905b815481529060010190602001808311611ac557829003601f168201915b50505050509050919050565b600360003373ffffffffffffffffffffffffffffffffffffffff1673ffffffffffffffffffffffffffffffffffffffff16815260200190815260200160002060050160009054906101000a900460ff16611b7d576040517f08c379a0000000000000000000000000000000000000000000000000000000008152600401611b7490612a22565b60405180910390fd5b600042905081600860008381526020019081526020016000209081611ba29190612c65565b50600a8190806001815401808255809150506001900390600052602060002001600090919091909150555050565b60096020528060005260406000206000915090508060000160009054906101000a900473ffffffffffffffffffffffffffffffffffffffff1690806001018054611c199061285b565b80601f0160208091040260200160405190810160405280929190818152602001828054611c459061285b565b8015611c925780601f10611c6757610100808354040283529160200191611c92565b820191906000526020600020905b815481529060010190602001808311611c7557829003601f168201915b5050505050908060020160009054906101000a900460ff16905083565b6060600a805480602002602001604051908101604052809291908181526020018280548015611cfd57602002820191906000526020600020905b815481526020019060010190808311611ce9575b5050505050905090565b60036020528060005260406000206000915090508060000160009054906101000a900473ffffffffffffffffffffffffffffffffffffffff1690806001018054611d509061285b565b80601f0160208091040260200160405190810160405280929190818152602001828054611d7c9061285b565b8015611dc95780601f10611d9e57610100808354040283529160200191611dc9565b820191906000526020600020905b815481529060010190602001808311611dac57829003601f168201915b505050505090806002018054611dde9061285b565b80601f0160208091040260200160405190810160405280929190818152602001828054611e0a9061285b565b8015611e575780601f10611e2c57610100808354040283529160200191611e57565b820191906000526020600020905b815481529060010190602001808311611e3a57829003601f168201915b505050505090806003018054611e6c9061285b565b80601f0160208091040260200160405190810160405280929190818152602001828054611e989061285b565b8015611ee55780601f10611eba57610100808354040283529160200191611ee5565b820191906000526020600020905b815481529060010190602001808311611ec857829003601f168201915b5050505050908060040154908060050160009054906101000a900460ff16905086565b600081604051602001611f1b9190612d73565b6040516020818303038152906040528051906020012083604051602001611f429190612d73565b6040516020818303038152906040528051906020012014905092915050565b508054611f6d9061285b565b6000825580601f10611f7f5750611f9e565b601f016020900490600052602060002090810190611f9d9190611fa1565b5b50565b5b80821115611fba576000816000905550600101611fa2565b5090565b6000604051905090565b600080fd5b600080fd5b6000819050919050565b611fe581611fd2565b8114611ff057600080fd5b50565b60008135905061200281611fdc565b92915050565b60006020828403121561201e5761201d611fc8565b5b600061202c84828501611ff3565b91505092915050565b600081519050919050565b600082825260208201905092915050565b60005b8381101561206f578082015181840152602081019050612054565b60008484015250505050565b6000601f19601f8301169050919050565b600061209782612035565b6120a18185612040565b93506120b1818560208601612051565b6120ba8161207b565b840191505092915050565b600060408201905081810360008301526120df818561208c565b905081810360208301526120f3818461208c565b90509392505050565b61210581611fd2565b82525050565b600060208201905061212060008301846120fc565b92915050565b600080fd5b600080fd5b7f4e487b7100000000000000000000000000000000000000000000000000000000600052604160045260246000fd5b6121688261207b565b810181811067ffffffffffffffff8211171561218757612186612130565b5b80604052505050565b600061219a611fbe565b90506121a6828261215f565b919050565b600067ffffffffffffffff8211156121c6576121c5612130565b5b6121cf8261207b565b9050602081019050919050565b82818337600083830152505050565b60006121fe6121f9846121ab565b612190565b90508281526020810184848401111561221a5761221961212b565b5b6122258482856121dc565b509392505050565b600082601f83011261224257612241612126565b5b81356122528482602086016121eb565b91505092915050565b60006020828403121561227157612270611fc8565b5b600082013567ffffffffffffffff81111561228f5761228e611fcd565b5b61229b8482850161222d565b91505092915050565b60008115159050919050565b6122b9816122a4565b82525050565b60006020820190506122d460008301846122b0565b92915050565b6000806000606084860312156122f3576122f2611fc8565b5b600084013567ffffffffffffffff81111561231157612310611fcd565b5b61231d8682870161222d565b935050602084013567ffffffffffffffff81111561233e5761233d611fcd565b5b61234a8682870161222d565b925050604084013567ffffffffffffffff81111561236b5761236a611fcd565b5b6123778682870161222d565b9150509250925092565b600073ffffffffffffffffffffffffffffffffffffffff82169050919050565b60006123ac82612381565b9050919050565b6123bc816123a1565b81146123c757600080fd5b50565b6000813590506123d9816123b3565b92915050565b6000602082840312156123f5576123f4611fc8565b5b6000612403848285016123ca565b91505092915050565b6000806000806080858703121561242657612425611fc8565b5b600085013567ffffffffffffffff81111561244457612443611fcd565b5b6124508782880161222d565b945050602085013567ffffffffffffffff81111561247157612470611fcd565b5b61247d8782880161222d565b935050604085013567ffffffffffffffff81111561249e5761249d611fcd565b5b6124aa8782880161222d565b92505060606124bb87828801611ff3565b91505092959194509250565b6124d0816123a1565b82525050565b60006020820190506124eb60008301846124c7565b92915050565b600060c08201905061250660008301896124c7565b61251360208301886120fc565b8181036040830152612525818761208c565b90508181036060830152612539818661208c565b9050818103608083015261254d818561208c565b905061255c60a08301846120fc565b979650505050505050565b600080600080600060a0868803121561258357612582611fc8565b5b6000612591888289016123ca565b955050602086013567ffffffffffffffff8111156125b2576125b1611fcd565b5b6125be8882890161222d565b945050604086013567ffffffffffffffff8111156125df576125de611fcd565b5b6125eb8882890161222d565b935050606086013567ffffffffffffffff81111561260c5761260b611fcd565b5b6126188882890161222d565b925050608061262988828901611ff3565b9150509295509295909350565b6000806040838503121561264d5761264c611fc8565b5b600061265b858286016123ca565b925050602061266c858286016123ca565b9150509250929050565b600060608201905061268b60008301866124c7565b818103602083015261269d818561208c565b90506126ac60408301846122b0565b949350505050565b600060208201905081810360008301526126ce818461208c565b905092915050565b600081519050919050565b600082825260208201905092915050565b6000819050602082019050919050565b61270b81611fd2565b82525050565b600061271d8383612702565b60208301905092915050565b6000602082019050919050565b6000612741826126d6565b61274b81856126e1565b9350612756836126f2565b8060005b8381101561278757815161276e8882612711565b975061277983612729565b92505060018101905061275a565b5085935050505092915050565b600060208201905081810360008301526127ae8184612736565b905092915050565b600060c0820190506127cb60008301896124c7565b81810360208301526127dd818861208c565b905081810360408301526127f1818761208c565b90508181036060830152612805818661208c565b905061281460808301856120fc565b61282160a08301846122b0565b979650505050505050565b7f4e487b7100000000000000000000000000000000000000000000000000000000600052602260045260246000fd5b6000600282049050600182168061287357607f821691505b6020821081036128865761288561282c565b5b50919050565b7f4f6e6c792073797374656d206f776e65722063616e20706572666f726d20746860008201527f697320616374696f6e0000000000000000000000000000000000000000000000602082015250565b60006128e8602983612040565b91506128f38261288c565b604082019050919050565b60006020820190508181036000830152612917816128db565b9050919050565b7f496e76616c69642070617373776f7264206f66206163636f756e74206164647260008201527f6573730000000000000000000000000000000000000000000000000000000000602082015250565b600061297a602383612040565b91506129858261291e565b604082019050919050565b600060208201905081810360008301526129a98161296d565b9050919050565b7f4f6e6c79206d616e7566616374757265722063616e206164642072657461696c60008201527f65722064657461696c7300000000000000000000000000000000000000000000602082015250565b6000612a0c602a83612040565b9150612a17826129b0565b604082019050919050565b60006020820190508181036000830152612a3b816129ff565b9050919050565b7f4e487b7100000000000000000000000000000000000000000000000000000000600052601160045260246000fd5b6000612a7c82611fd2565b91507fffffffffffffffffffffffffffffffffffffffffffffffffffffffffffffffff8203612aae57612aad612a42565b5b600182019050919050565b60008190508160005260206000209050919050565b60006020601f8301049050919050565b600082821b905092915050565b600060088302612b1b7fffffffffffffffffffffffffffffffffffffffffffffffffffffffffffffffff82612ade565b612b258683612ade565b95508019841693508086168417925050509392505050565b6000819050919050565b6000612b62612b5d612b5884611fd2565b612b3d565b611fd2565b9050919050565b6000819050919050565b612b7c83612b47565b612b90612b8882612b69565b848454612aeb565b825550505050565b600090565b612ba5612b98565b612bb0818484612b73565b505050565b5b81811015612bd457612bc9600082612b9d565b600181019050612bb6565b5050565b601f821115612c1957612bea81612ab9565b612bf384612ace565b81016020851015612c02578190505b612c16612c0e85612ace565b830182612bb5565b50505b505050565b600082821c905092915050565b6000612c3c60001984600802612c1e565b1980831691505092915050565b6000612c558383612c2b565b9150826002028217905092915050565b612c6e82612035565b67ffffffffffffffff811115612c8757612c86612130565b5b612c91825461285b565b612c9c828285612bd8565b600060209050601f831160018114612ccf5760008415612cbd578287015190505b612cc78582612c49565b865550612d2f565b601f198416612cdd86612ab9565b60005b82811015612d0557848901518255600182019150602085019450602081019050612ce0565b86831015612d225784890151612d1e601f891682612c2b565b8355505b6001600288020188555050505b505050505050565b600081905092915050565b6000612d4d82612035565b612d578185612d37565b9350612d67818560208601612051565b80840191505092915050565b6000612d7f8284612d42565b915081905092915050565b7f52657461696c6572206e6f7420666f756e640000000000000000000000000000600082015250565b6000612dc0601283612040565b9150612dcb82612d8a565b602082019050919050565b60006020820190508181036000830152612def81612db3565b9050919050565b60008154612e038161285b565b612e0d8186612d37565b94506001821660008114612e285760018114612e3d57612e70565b60ff1983168652811515820286019350612e70565b612e4685612ab9565b60005b83811015612e6857815481890152600182019150602081019050612e49565b838801955050505b50505092915050565b6000612e858284612df6565b915081905092915050565b7f41646472657373206e6f742076616c6964000000000000000000000000000000600082015250565b6000612ec6601183612040565b9150612ed182612e90565b602082019050919050565b60006020820190508181036000830152612ef581612eb9565b9050919050565b7f4d616e75666163747572657220697320616c726561647920726567697374657260008201527f6564000000000000000000000000000000000000000000000000000000000000602082015250565b6000612f58602283612040565b9150612f6382612efc565b604082019050919050565b60006020820190508181036000830152612f8781612f4b565b9050919050565b7f4d616e756661637475726572206e616d652063616e6e6f7420626520656d707460008201527f7900000000000000000000000000000000000000000000000000000000000000602082015250565b6000612fea602183612040565b9150612ff582612f8e565b604082019050919050565b6000602082019050818103600083015261301981612fdd565b9050919050565b7f52657461696c657220616464726573732063616e6e6f74206265207a65726f00600082015250565b6000613056601f83612040565b915061306182613020565b602082019050919050565b6000602082019050818103600083015261308581613049565b9050919050565b60008154905061309b8161285b565b9050919050565b8181036130b0575050613188565b6130b98261308c565b67ffffffffffffffff8111156130d2576130d1612130565b5b6130dc825461285b565b6130e7828285612bd8565b6000601f8311600181146131165760008415613104578287015490505b61310e8582612c49565b865550613181565b601f19841661312487612ab9565b965061312f86612ab9565b60005b8281101561315757848901548255600182019150600185019450602081019050613132565b868310156131745784890154613170601f891682612c2b565b8355505b6001600288020188555050505b5050505050505b56fea264697066735822122037684a9ea876ad57bc69f7f5a073ad3c0cb4af8bbdf1a4a9893794bf6b17d0e664736f6c63430008130033",
  "immutableReferences": {},
  "source": "// SPDX-License-Identifier: MIT\npragma solidity ^0.8.19;\n\ncontract QrCode {\n    event ManufacturerAdded(address indexed manufacturer);\n    event RetailerAdded(address indexed retailer);\n    event RetailerRemoved(address indexed retailer);\n    event ItemAdded(uint256 indexed id);\n    event ItemDetailsUpdated(\n        uint256 indexed id,\n        string itemName,\n        string description\n    );\n    event ItemRecorded(uint256 indexed id);\n    // event ItemNotFound(string qrHash);\n\n    struct Manufacturer {\n        address manufacturer;\n        string name;\n        string location;\n        string email;\n        uint256 phoneNumber;\n        bool isSignedUp;\n    }\n\n    struct Retailer {\n        address retailer;\n        uint256 retailerID;\n        string name;\n        string location;\n        string email;\n        uint256 phoneNumber;\n    }\n\n    struct ItemDetails {\n        string itemName;\n        string description;\n    }\n\n    //@dev Josephat create system account structure\n    struct SystemOwner {\n        address sysOwner;\n        string password;\n        bool isLogin;\n    }\n\n    address public owner;\n    uint256 private s_retailerID;\n    uint256 private item_ID;\n\n    mapping(address => Manufacturer) public manufacturerDetails;\n    mapping(address => mapping(address => Retailer))\n        public manufacturerToRetailerDetails;\n    mapping(string => Retailer) public retailerDetails;\n\n    // mapping(address => mapping(string => uint256)) public identifiers;\n    // mapping(string => uint256) public hashToId;\n    mapping(uint256 => ItemDetails) public itemDetails;\n    mapping(string => bool) public recordedItems;\n\n    //@dev Josephat mapping\n    mapping(uint256 => string) private qrHashMap;\n    mapping(address => SystemOwner) public sysOwnerMap;\n\n    //@dev Josephat array\n    uint256[] public qrHashArr;\n\n    SystemOwner public sysowner;\n\n    constructor() {\n        owner = msg.sender;\n        sysowner = SystemOwner(owner, \"admin\", false);\n        sysOwnerMap[owner] = sysowner;\n    }\n\n    //@dev Josephat only owner condition\n    modifier onlySysOwner() {\n        require(\n            msg.sender == owner,\n            \"Only system owner can perform this action\"\n        );\n        _;\n    }\n\n    modifier onlyManufacturer() {\n        require(\n            manufacturerDetails[msg.sender].isSignedUp,\n            \"Only manufacturer can add retailer details\"\n        );\n        _;\n    }\n\n    // @dev Josephat transfer sysOwnership\n    function transerOwership(address _address) external onlySysOwner {\n        owner = _address;\n    }\n\n    function signUp(\n        string memory _manfName,\n        string memory _location,\n        string memory _email,\n        uint256 _phoneNumber\n    ) external {\n        require(msg.sender != address(0), \"Address not valid\");\n        require(\n            !manufacturerDetails[msg.sender].isSignedUp,\n            \"Manufacturer is already registered\"\n        );\n        require(\n            bytes(_manfName).length > 0,\n            \"Manufacturer name cannot be empty\"\n        );\n\n        emit ManufacturerAdded(msg.sender);\n        manufacturerDetails[msg.sender] = Manufacturer(\n            msg.sender,\n            _manfName,\n            _location,\n            _email,\n            _phoneNumber,\n            true\n        );\n    }\n\n    //@dev Josephat login system for system owner\n    function loginSysOwner(\n        string memory _password\n    ) external onlySysOwner returns (bool) {\n        require(\n            compareStrings(sysOwnerMap[msg.sender].password, _password),\n            \"Invalid password of account address\"\n        );\n        sysOwnerMap[msg.sender].isLogin = true;\n        return true;\n    }\n\n    //@dev Josephat function to store data to the array storeQrHash executed by only manufacturer\n    function storeQrHash(string memory _qrHash) external onlyManufacturer {\n        uint timestamp = block.timestamp;\n        qrHashMap[timestamp] = _qrHash;\n        qrHashArr.push(timestamp);\n    }\n\n    //@dev Josephat function to return qrcodeHash array to the manufacturer frontend\n    function getQrHashList() external view returns (uint256[] memory) {\n        return qrHashArr;\n    }\n\n    //@dev Josephat function to view qrcodeHash one by one\n    function getQrHash(\n        uint256 _indeId\n    ) external view returns (string memory _qrHash) {\n        _qrHash = qrHashMap[_indeId];\n    }\n\n    function addRetailerInfo(\n        address _retailer,\n        string memory _name,\n        string memory _location,\n        string memory _email,\n        uint256 _phoneNumber\n    ) external onlyManufacturer {\n        require(_retailer != address(0), \"Retailer address cannot be zero\");\n        emit RetailerAdded(_retailer);\n        s_retailerID++;\n        manufacturerToRetailerDetails[msg.sender][_retailer] = Retailer(\n            _retailer,\n            s_retailerID,\n            _name,\n            _location,\n            _email,\n            _phoneNumber\n        );\n        retailerDetails[_name] = manufacturerToRetailerDetails[msg.sender][\n            _retailer\n        ];\n    }\n\n    function removeRetailer(address _retailer) external onlyManufacturer {\n        require(\n            manufacturerToRetailerDetails[msg.sender][_retailer].retailer !=\n                address(0),\n            \"Retailer not found\"\n        );\n        emit RetailerRemoved(_retailer);\n        delete manufacturerToRetailerDetails[msg.sender][_retailer];\n        delete retailerDetails[\n            manufacturerToRetailerDetails[msg.sender][_retailer].name\n        ];\n    }\n\n    function addItemDetails(\n        string memory _qrHash,\n        string memory _itemName,\n        string memory _description\n    ) external onlyManufacturer {\n        // require(identifiers[msg.sender][_qrHash] == 0, \"Identifier already exists\");\n        // require(hashToId[_qrHash] == 0, \"Identifier already exists\");\n        // require(!recordedItems[_qrHash], \"Item already recorded\");\n        // require(bytes(_itemName).length > 0, \"Item name cannot be empty\");\n        // require(bytes(_description).length > 0, \"Description cannot be empty\");\n\n        emit ItemAdded(item_ID);\n        emit ItemDetailsUpdated(item_ID, _itemName, _description);\n        emit ItemRecorded(item_ID);\n\n        item_ID++;\n        // identifiers[msg.sender][_qrHash] = item_ID;\n        // hashToId[_qrHash] = item_ID;\n        itemDetails[item_ID] = ItemDetails(_itemName, _description);\n        recordedItems[_qrHash] = true;\n    }\n\n    // function getItemIdentifier(string memory _qrHash) public view returns (uint256) {\n    //     return hashToId[_qrHash];\n    // }\n\n    function scanItem(string memory _qrHash) external view returns (bool) {\n        if (recordedItems[_qrHash]) {\n            // return itemDetails[getItemIdentifier(_qrHash)];\n            return true;\n        } else {\n            // emit ItemNotFound(_qrHash);\n            // return ItemDetails(\"\", \"\");\n            return false;\n        }\n    }\n\n    // @dev Josephat helpers Functions\n\n    // Cannot directly compare strings in Solidity\n    // This function hashes the 2 strings and then compares the 2 hashes\n    function compareStrings(\n        string memory a,\n        string memory b\n    ) internal pure returns (bool) {\n        return keccak256(abi.encodePacked(a)) == keccak256(abi.encodePacked(b));\n    }\n}\n",
  "sourcePath": "/home/temba/finalHashthonAlcoshield/AlcoShield/contracts/QrCode.sol",
  "compiler": {
    "name": "solc",
    "version": "0.8.19+commit.7dd6d404.Emscripten.clang"
  },
  "schemaVersion": "3.4.16",
  "updatedAt": "2024-02-16T17:09:17.767Z",
  "networkType": "ethereum",
  "devdoc": {
    "kind": "dev",
    "methods": {},
    "version": 1
  },
  "userdoc": {
    "kind": "user",
    "methods": {},
    "version": 1
  }
}