{
  "contractName": "QrCode",
  "abi": [
    {
      "inputs": [],
      "stateMutability": "nonpayable",
      "type": "constructor"
    },
    {
      "inputs": [
        {
          "internalType": "uint256",
          "name": "blockId",
          "type": "uint256"
        }
      ],
      "name": "HashIsntStored",
      "type": "error"
    },
    {
      "anonymous": false,
      "inputs": [
        {
          "indexed": true,
          "internalType": "uint256",
          "name": "id",
          "type": "uint256"
        }
      ],
      "name": "ItemAdded_M",
      "type": "event"
    },
    {
      "anonymous": false,
      "inputs": [
        {
          "indexed": true,
          "internalType": "uint256",
          "name": "id",
          "type": "uint256"
        },
        {
          "indexed": false,
          "internalType": "string",
          "name": "itemName",
          "type": "string"
        },
        {
          "indexed": false,
          "internalType": "string",
          "name": "description",
          "type": "string"
        }
      ],
      "name": "ItemDetailsUpdated_M",
      "type": "event"
    },
    {
      "anonymous": false,
      "inputs": [
        {
          "indexed": true,
          "internalType": "uint256",
          "name": "id",
          "type": "uint256"
        }
      ],
      "name": "ItemRecorded_M",
      "type": "event"
    },
    {
      "anonymous": false,
      "inputs": [
        {
          "indexed": true,
          "internalType": "address",
          "name": "manufacturer",
          "type": "address"
        }
      ],
      "name": "ManufacturerAdded",
      "type": "event"
    },
    {
      "anonymous": false,
      "inputs": [
        {
          "indexed": true,
          "internalType": "address",
          "name": "admin",
          "type": "address"
        }
      ],
      "name": "PasswordChanged",
      "type": "event"
    },
    {
      "anonymous": false,
      "inputs": [
        {
          "indexed": false,
          "internalType": "string",
          "name": "retailer",
          "type": "string"
        }
      ],
      "name": "RetailerAdded",
      "type": "event"
    },
    {
      "anonymous": false,
      "inputs": [
        {
          "indexed": true,
          "internalType": "uint256",
          "name": "retailerID",
          "type": "uint256"
        }
      ],
      "name": "RetailerRemoved",
      "type": "event"
    },
    {
      "anonymous": false,
      "inputs": [
        {
          "indexed": true,
          "internalType": "address",
          "name": "newAdmin",
          "type": "address"
        }
      ],
      "name": "ownershipTransferred",
      "type": "event"
    },
    {
      "anonymous": false,
      "inputs": [
        {
          "indexed": false,
          "internalType": "uint256",
          "name": "_blockId",
          "type": "uint256"
        }
      ],
      "name": "qrHashDeleted",
      "type": "event"
    },
    {
      "anonymous": false,
      "inputs": [
        {
          "indexed": true,
          "internalType": "uint256",
          "name": "timestamp",
          "type": "uint256"
        }
      ],
      "name": "qrHashStored",
      "type": "event"
    },
    {
      "inputs": [
        {
          "internalType": "uint256",
          "name": "",
          "type": "uint256"
        }
      ],
      "name": "itemDetails",
      "outputs": [
        {
          "internalType": "string",
          "name": "itemName",
          "type": "string"
        },
        {
          "internalType": "string",
          "name": "description",
          "type": "string"
        }
      ],
      "stateMutability": "view",
      "type": "function"
    },
    {
      "inputs": [
        {
          "internalType": "address",
          "name": "",
          "type": "address"
        }
      ],
      "name": "manufacturerDetails",
      "outputs": [
        {
          "internalType": "address",
          "name": "manufacturer",
          "type": "address"
        },
        {
          "internalType": "string",
          "name": "name",
          "type": "string"
        },
        {
          "internalType": "string",
          "name": "location",
          "type": "string"
        },
        {
          "internalType": "string",
          "name": "email",
          "type": "string"
        },
        {
          "internalType": "string",
          "name": "phoneNumber",
          "type": "string"
        },
        {
          "internalType": "bytes32",
          "name": "password",
          "type": "bytes32"
        },
        {
          "internalType": "bool",
          "name": "isSignedUp",
          "type": "bool"
        }
      ],
      "stateMutability": "view",
      "type": "function"
    },
    {
      "inputs": [
        {
          "internalType": "address",
          "name": "",
          "type": "address"
        },
        {
          "internalType": "uint256",
          "name": "",
          "type": "uint256"
        }
      ],
      "name": "manufacturerToRetailerDetails",
      "outputs": [
        {
          "internalType": "uint256",
          "name": "retailerID",
          "type": "uint256"
        },
        {
          "internalType": "string",
          "name": "name",
          "type": "string"
        },
        {
          "internalType": "string",
          "name": "location",
          "type": "string"
        },
        {
          "internalType": "string",
          "name": "email",
          "type": "string"
        },
        {
          "internalType": "string",
          "name": "phoneNumber",
          "type": "string"
        }
      ],
      "stateMutability": "view",
      "type": "function"
    },
    {
      "inputs": [
        {
          "internalType": "string",
          "name": "",
          "type": "string"
        }
      ],
      "name": "matchHashToId",
      "outputs": [
        {
          "internalType": "uint256",
          "name": "",
          "type": "uint256"
        }
      ],
      "stateMutability": "view",
      "type": "function"
    },
    {
      "inputs": [
        {
          "internalType": "string",
          "name": "",
          "type": "string"
        }
      ],
      "name": "matchedItems",
      "outputs": [
        {
          "internalType": "bool",
          "name": "",
          "type": "bool"
        }
      ],
      "stateMutability": "view",
      "type": "function"
    },
    {
      "inputs": [
        {
          "internalType": "string",
          "name": "",
          "type": "string"
        }
      ],
      "name": "retailerDetails",
      "outputs": [
        {
          "internalType": "uint256",
          "name": "retailerID",
          "type": "uint256"
        },
        {
          "internalType": "string",
          "name": "name",
          "type": "string"
        },
        {
          "internalType": "string",
          "name": "location",
          "type": "string"
        },
        {
          "internalType": "string",
          "name": "email",
          "type": "string"
        },
        {
          "internalType": "string",
          "name": "phoneNumber",
          "type": "string"
        }
      ],
      "stateMutability": "view",
      "type": "function"
    },
    {
      "inputs": [],
      "name": "s_retailerID",
      "outputs": [
        {
          "internalType": "uint256",
          "name": "",
          "type": "uint256"
        }
      ],
      "stateMutability": "view",
      "type": "function"
    },
    {
      "inputs": [
        {
          "internalType": "bytes32",
          "name": "_password",
          "type": "bytes32"
        }
      ],
      "name": "loginSysOwner",
      "outputs": [
        {
          "internalType": "bool",
          "name": "",
          "type": "bool"
        }
      ],
      "stateMutability": "nonpayable",
      "type": "function"
    },
    {
      "inputs": [
        {
          "internalType": "bytes32",
          "name": "oldPassword",
          "type": "bytes32"
        },
        {
          "internalType": "bytes32",
          "name": "_newPassword",
          "type": "bytes32"
        }
      ],
      "name": "changePassword",
      "outputs": [],
      "stateMutability": "nonpayable",
      "type": "function"
    },
    {
      "inputs": [
        {
          "internalType": "address",
          "name": "_address",
          "type": "address"
        }
      ],
      "name": "transferOwnership",
      "outputs": [],
      "stateMutability": "nonpayable",
      "type": "function"
    },
    {
      "inputs": [
        {
          "internalType": "string",
          "name": "_manfName",
          "type": "string"
        },
        {
          "internalType": "string",
          "name": "_location",
          "type": "string"
        },
        {
          "internalType": "string",
          "name": "_email",
          "type": "string"
        },
        {
          "internalType": "string",
          "name": "_phoneNumber",
          "type": "string"
        },
        {
          "internalType": "bytes32",
          "name": "_password",
          "type": "bytes32"
        }
      ],
      "name": "signUp",
      "outputs": [],
      "stateMutability": "nonpayable",
      "type": "function"
    },
    {
      "inputs": [
        {
          "internalType": "string",
          "name": "_name",
          "type": "string"
        },
        {
          "internalType": "string",
          "name": "_location",
          "type": "string"
        },
        {
          "internalType": "string",
          "name": "_email",
          "type": "string"
        },
        {
          "internalType": "string",
          "name": "_phoneNumber",
          "type": "string"
        }
      ],
      "name": "addRetailerInfo",
      "outputs": [],
      "stateMutability": "nonpayable",
      "type": "function"
    },
    {
      "inputs": [
        {
          "internalType": "uint256",
          "name": "_retailerID",
          "type": "uint256"
        }
      ],
      "name": "removeRetailer",
      "outputs": [],
      "stateMutability": "nonpayable",
      "type": "function"
    },
    {
      "inputs": [
        {
          "internalType": "string",
          "name": "_qrHash",
          "type": "string"
        }
      ],
      "name": "storeQrHash",
      "outputs": [],
      "stateMutability": "nonpayable",
      "type": "function"
    },
    {
      "inputs": [
        {
          "internalType": "uint256",
          "name": "_blockId",
          "type": "uint256"
        }
      ],
      "name": "deleteQrHash",
      "outputs": [],
      "stateMutability": "nonpayable",
      "type": "function"
    },
    {
      "inputs": [],
      "name": "getManfItemIDList",
      "outputs": [
        {
          "internalType": "uint256[]",
          "name": "",
          "type": "uint256[]"
        }
      ],
      "stateMutability": "view",
      "type": "function"
    },
    {
      "inputs": [
        {
          "internalType": "string",
          "name": "_qrHash",
          "type": "string"
        },
        {
          "internalType": "uint256",
          "name": "_blockId",
          "type": "uint256"
        },
        {
          "internalType": "string",
          "name": "_itemName",
          "type": "string"
        },
        {
          "internalType": "string",
          "name": "_description",
          "type": "string"
        }
      ],
      "name": "addItemDetails",
      "outputs": [],
      "stateMutability": "nonpayable",
      "type": "function"
    },
    {
      "inputs": [
        {
          "internalType": "string",
          "name": "_qrHash",
          "type": "string"
        }
      ],
      "name": "scanItem",
      "outputs": [
        {
          "internalType": "bool",
          "name": "",
          "type": "bool"
        }
      ],
      "stateMutability": "view",
      "type": "function"
    },
    {
      "inputs": [
        {
          "internalType": "string",
          "name": "_qrHash",
          "type": "string"
        }
      ],
      "name": "moreDetailsForScannedItem",
      "outputs": [
        {
          "components": [
            {
              "internalType": "string",
              "name": "itemName",
              "type": "string"
            },
            {
              "internalType": "string",
              "name": "description",
              "type": "string"
            }
          ],
          "internalType": "struct QrCode.ItemDetails",
          "name": "",
          "type": "tuple"
        }
      ],
      "stateMutability": "view",
      "type": "function"
    }
  ],
  "bytecode": "0x60806040523480156200001157600080fd5b50336000806101000a81548173ffffffffffffffffffffffffffffffffffffffff021916908373ffffffffffffffffffffffffffffffffffffffff160217905550604051806060016040528060008054906101000a900473ffffffffffffffffffffffffffffffffffffffff1673ffffffffffffffffffffffffffffffffffffffff168152602001604051602001620000aa90620002ac565b60405160208183030381529060405280519060200120815260200160001515815250600160008201518160000160006101000a81548173ffffffffffffffffffffffffffffffffffffffff021916908373ffffffffffffffffffffffffffffffffffffffff1602179055506020820151816001015560408201518160020160006101000a81548160ff0219169083151502179055509050506001600560008060009054906101000a900473ffffffffffffffffffffffffffffffffffffffff1673ffffffffffffffffffffffffffffffffffffffff1673ffffffffffffffffffffffffffffffffffffffff1681526020019081526020016000206000820160009054906101000a900473ffffffffffffffffffffffffffffffffffffffff168160000160006101000a81548173ffffffffffffffffffffffffffffffffffffffff021916908373ffffffffffffffffffffffffffffffffffffffff160217905550600182015481600101556002820160009054906101000a900460ff168160020160006101000a81548160ff021916908315150217905550905050620002ce565b600082825260208201905092915050565b7f61646d696e000000000000000000000000000000000000000000000000000000600082015250565b6000620002946005836200024b565b9150620002a1826200025c565b602082019050919050565b60006020820190508181036000830152620002c78162000285565b9050919050565b6146df80620002de6000396000f3fe608060405234801561001057600080fd5b50600436106101215760003560e01c806377f40e33116100ad578063e38483a311610071578063e38483a314610347578063e4145db114610363578063f2fde38b1461037f578063fb262c301461039b578063fe244c37146103cb57610121565b806377f40e331461028d5780637a788e0a146102bd5780638d11d5ff146102db5780638fd6a8cf146102f7578063b98da9a31461032b57610121565b80632f5be861116100f45780632f5be861146101bf5780636030775e146101db578063656807951461020b5780636c3a98ae1461023b578063748ae1071461025957610121565b80631bef85c0146101265780631fb4e3f014610156578063292785fc146101875780632bb9cd92146101a3575b600080fd5b610140600480360381019061013b9190612eb8565b610401565b60405161014d9190612fc4565b60405180910390f35b610170600480360381019061016b919061301c565b610576565b60405161017e929190613093565b60405180910390f35b6101a1600480360381019061019c9190613100565b6106aa565b005b6101bd60048036038101906101b89190613140565b610a66565b005b6101d960048036038101906101d491906131fb565b610ebf565b005b6101f560048036038101906101f09190612eb8565b6112d3565b60405161020291906132ed565b60405180910390f35b61022560048036038101906102209190613308565b611319565b60405161023291906132ed565b60405180910390f35b610243611527565b6040516102509190613344565b60405180910390f35b610273600480360381019061026e91906133bd565b61152d565b6040516102849594939291906133fd565b60405180910390f35b6102a760048036038101906102a29190612eb8565b611790565b6040516102b491906132ed565b60405180910390f35b6102c56117c6565b6040516102d2919061352a565b60405180910390f35b6102f560048036038101906102f0919061301c565b61191c565b005b610311600480360381019061030c9190612eb8565b611af5565b6040516103229594939291906133fd565b60405180910390f35b6103456004803603810190610340919061301c565b611d61565b005b610361600480360381019061035c9190612eb8565b61207a565b005b61037d6004803603810190610378919061354c565b612261565b005b61039960048036038101906103949190613637565b612747565b005b6103b560048036038101906103b09190612eb8565b6129d1565b6040516103c29190613344565b60405180910390f35b6103e560048036038101906103e09190613637565b6129ff565b6040516103f89796959493929190613682565b60405180910390f35b610409612ce7565b6000600c8360405161041b9190613749565b9081526020016040518091039020549050600e600082815260200190815260200160002060405180604001604052908160008201805461045a9061378f565b80601f01602080910402602001604051908101604052809291908181526020018280546104869061378f565b80156104d35780601f106104a8576101008083540402835291602001916104d3565b820191906000526020600020905b8154815290600101906020018083116104b657829003601f168201915b505050505081526020016001820180546104ec9061378f565b80601f01602080910402602001604051908101604052809291908181526020018280546105189061378f565b80156105655780601f1061053a57610100808354040283529160200191610565565b820191906000526020600020905b81548152906001019060200180831161054857829003601f168201915b505050505081525050915050919050565b600e6020528060005260406000206000915090508060000180546105999061378f565b80601f01602080910402602001604051908101604052809291908181526020018280546105c59061378f565b80156106125780601f106105e757610100808354040283529160200191610612565b820191906000526020600020905b8154815290600101906020018083116105f557829003601f168201915b5050505050908060010180546106279061378f565b80601f01602080910402602001604051908101604052809291908181526020018280546106539061378f565b80156106a05780601f10610675576101008083540402835291602001916106a0565b820191906000526020600020905b81548152906001019060200180831161068357829003601f168201915b5050505050905082565b60008054906101000a900473ffffffffffffffffffffffffffffffffffffffff1673ffffffffffffffffffffffffffffffffffffffff163373ffffffffffffffffffffffffffffffffffffffff1614610738576040517f08c379a000000000000000000000000000000000000000000000000000000000815260040161072f90613832565b60405180910390fd5b600073ffffffffffffffffffffffffffffffffffffffff163373ffffffffffffffffffffffffffffffffffffffff16036107a7576040517f08c379a000000000000000000000000000000000000000000000000000000000815260040161079e90613832565b60405180910390fd5b816040516020016107b89190613852565b60405160208183030381529060405280519060200120600560003373ffffffffffffffffffffffffffffffffffffffff1673ffffffffffffffffffffffffffffffffffffffff1681526020019081526020016000206001015414610851576040517f08c379a0000000000000000000000000000000000000000000000000000000008152600401610848906138b9565b60405180910390fd5b6000602060ff1611610898576040517f08c379a000000000000000000000000000000000000000000000000000000000815260040161088f90613925565b60405180910390fd5b806040516020016108a99190613852565b60405160208183030381529060405280519060200120600560003373ffffffffffffffffffffffffffffffffffffffff1673ffffffffffffffffffffffffffffffffffffffff1681526020019081526020016000206001015403610942576040517f08c379a000000000000000000000000000000000000000000000000000000000815260040161093990613991565b60405180910390fd5b60011515600560003373ffffffffffffffffffffffffffffffffffffffff1673ffffffffffffffffffffffffffffffffffffffff16815260200190815260200160002060020160009054906101000a900460ff161515146109d8576040517f08c379a00000000000000000000000000000000000000000000000000000000081526004016109cf906139fd565b60405180910390fd5b3373ffffffffffffffffffffffffffffffffffffffff167f85a52c4d6d605a61db8affa2383ae4d5aeefe6f4363c35174504042b4a0ee9b660405160405180910390a280600560003373ffffffffffffffffffffffffffffffffffffffff1673ffffffffffffffffffffffffffffffffffffffff168152602001908152602001600020600101819055505050565b600660003373ffffffffffffffffffffffffffffffffffffffff1673ffffffffffffffffffffffffffffffffffffffff16815260200190815260200160002060060160009054906101000a900460ff16610af5576040517f08c379a0000000000000000000000000000000000000000000000000000000008152600401610aec90613a8f565b60405180910390fd5b600073ffffffffffffffffffffffffffffffffffffffff163373ffffffffffffffffffffffffffffffffffffffff1603610b64576040517f08c379a0000000000000000000000000000000000000000000000000000000008152600401610b5b90613b21565b60405180910390fd5b610c46600960003373ffffffffffffffffffffffffffffffffffffffff1673ffffffffffffffffffffffffffffffffffffffff16815260200190815260200160002060008581526020019081526020016000208054610bc29061378f565b80601f0160208091040260200160405190810160405280929190818152602001828054610bee9061378f565b8015610c3b5780601f10610c1057610100808354040283529160200191610c3b565b820191906000526020600020905b815481529060010190602001808311610c1e57829003601f168201915b505050505085612c8e565b610c85576040517f08c379a0000000000000000000000000000000000000000000000000000000008152600401610c7c90613b8d565b60405180910390fd5b60011515600b600085815260200190815260200160002060009054906101000a900460ff16151514610cec576040517f08c379a0000000000000000000000000000000000000000000000000000000008152600401610ce390613bf9565b60405180910390fd5b6000825111610d30576040517f08c379a0000000000000000000000000000000000000000000000000000000008152600401610d2790613c65565b60405180910390fd5b6000815111610d74576040517f08c379a0000000000000000000000000000000000000000000000000000000008152600401610d6b90613cd1565b60405180910390fd5b827f611520fe479942fc842c72a2974cc0bf4746653a8b34285ba197c7192fd4721d60405160405180910390a2827f63bcdba1660b19ba3aaaf6afe05409cc2811b84ad557ca33f7eda874ac3a89b08383604051610dd3929190613093565b60405180910390a2827f2c43e921afd657149a59b6382398172493954880204131eb2a51b2846890838960405160405180910390a282600c85604051610e199190613749565b9081526020016040518091039020819055506001600d85604051610e3d9190613749565b908152602001604051809103902060006101000a81548160ff021916908315150217905550604051806040016040528083815260200182815250600e60008581526020019081526020016000206000820151816000019081610e9f9190613e9d565b506020820151816001019081610eb59190613e9d565b5090505050505050565b600660003373ffffffffffffffffffffffffffffffffffffffff1673ffffffffffffffffffffffffffffffffffffffff16815260200190815260200160002060060160009054906101000a900460ff16610f4e576040517f08c379a0000000000000000000000000000000000000000000000000000000008152600401610f4590613a8f565b60405180910390fd5b600073ffffffffffffffffffffffffffffffffffffffff163373ffffffffffffffffffffffffffffffffffffffff1603610fbd576040517f08c379a0000000000000000000000000000000000000000000000000000000008152600401610fb490613b21565b60405180910390fd5b6000845111611001576040517f08c379a0000000000000000000000000000000000000000000000000000000008152600401610ff890613fe1565b60405180910390fd5b6000835111611045576040517f08c379a000000000000000000000000000000000000000000000000000000000815260040161103c9061404d565b60405180910390fd5b6000825111611089576040517f08c379a0000000000000000000000000000000000000000000000000000000008152600401611080906140b9565b60405180910390fd5b60008151116110cd576040517f08c379a00000000000000000000000000000000000000000000000000000000081526004016110c490614125565b60405180910390fd5b7f73d87f380e0a7b768520275cc06c6143276be057013aa419a14c7f88e47f915f846040516110fc9190614145565b60405180910390a16004600081548092919061111790614196565b91905055506040518060a00160405280600454815260200185815260200184815260200183815260200182815250600760003373ffffffffffffffffffffffffffffffffffffffff1673ffffffffffffffffffffffffffffffffffffffff168152602001908152602001600020600060045481526020019081526020016000206000820151816000015560208201518160010190816111b69190613e9d565b5060408201518160020190816111cc9190613e9d565b5060608201518160030190816111e29190613e9d565b5060808201518160040190816111f89190613e9d565b50905050600760003373ffffffffffffffffffffffffffffffffffffffff1673ffffffffffffffffffffffffffffffffffffffff1681526020019081526020016000206000600454815260200190815260200160002060088560405161125e9190613749565b9081526020016040518091039020600082015481600001556001820181600101908161128a91906141f4565b506002820181600201908161129f91906141f4565b50600382018160030190816112b491906141f4565b50600482018160040190816112c991906141f4565b5090505050505050565b6000600d826040516112e59190613749565b908152602001604051809103902060009054906101000a900460ff161561130f5760019050611314565b600090505b919050565b60008060009054906101000a900473ffffffffffffffffffffffffffffffffffffffff1673ffffffffffffffffffffffffffffffffffffffff163373ffffffffffffffffffffffffffffffffffffffff16146113aa576040517f08c379a00000000000000000000000000000000000000000000000000000000081526004016113a190613832565b60405180910390fd5b600073ffffffffffffffffffffffffffffffffffffffff163373ffffffffffffffffffffffffffffffffffffffff1603611419576040517f08c379a000000000000000000000000000000000000000000000000000000000815260040161141090613832565b60405180910390fd5b8160405160200161142a9190613852565b60405160208183030381529060405280519060200120600560003373ffffffffffffffffffffffffffffffffffffffff1673ffffffffffffffffffffffffffffffffffffffff16815260200190815260200160002060010154146114c3576040517f08c379a00000000000000000000000000000000000000000000000000000000081526004016114ba9061434e565b60405180910390fd5b6001600560003373ffffffffffffffffffffffffffffffffffffffff1673ffffffffffffffffffffffffffffffffffffffff16815260200190815260200160002060020160006101000a81548160ff02191690831515021790555060019050919050565b60045481565b6007602052816000526040600020602052806000526040600020600091509150508060000154908060010180546115639061378f565b80601f016020809104026020016040519081016040528092919081815260200182805461158f9061378f565b80156115dc5780601f106115b1576101008083540402835291602001916115dc565b820191906000526020600020905b8154815290600101906020018083116115bf57829003601f168201915b5050505050908060020180546115f19061378f565b80601f016020809104026020016040519081016040528092919081815260200182805461161d9061378f565b801561166a5780601f1061163f5761010080835404028352916020019161166a565b820191906000526020600020905b81548152906001019060200180831161164d57829003601f168201915b50505050509080600301805461167f9061378f565b80601f01602080910402602001604051908101604052809291908181526020018280546116ab9061378f565b80156116f85780601f106116cd576101008083540402835291602001916116f8565b820191906000526020600020905b8154815290600101906020018083116116db57829003601f168201915b50505050509080600401805461170d9061378f565b80601f01602080910402602001604051908101604052809291908181526020018280546117399061378f565b80156117865780601f1061175b57610100808354040283529160200191611786565b820191906000526020600020905b81548152906001019060200180831161176957829003601f168201915b5050505050905085565b600d818051602081018201805184825260208301602085012081835280955050505050506000915054906101000a900460ff1681565b6060600660003373ffffffffffffffffffffffffffffffffffffffff1673ffffffffffffffffffffffffffffffffffffffff16815260200190815260200160002060060160009054906101000a900460ff16611857576040517f08c379a000000000000000000000000000000000000000000000000000000000815260040161184e90613a8f565b60405180910390fd5b600073ffffffffffffffffffffffffffffffffffffffff163373ffffffffffffffffffffffffffffffffffffffff16036118c6576040517f08c379a00000000000000000000000000000000000000000000000000000000081526004016118bd90613b21565b60405180910390fd5b600a80548060200260200160405190810160405280929190818152602001828054801561191257602002820191906000526020600020905b8154815260200190600101908083116118fe575b5050505050905090565b600660003373ffffffffffffffffffffffffffffffffffffffff1673ffffffffffffffffffffffffffffffffffffffff16815260200190815260200160002060060160009054906101000a900460ff166119ab576040517f08c379a00000000000000000000000000000000000000000000000000000000081526004016119a290613a8f565b60405180910390fd5b600073ffffffffffffffffffffffffffffffffffffffff163373ffffffffffffffffffffffffffffffffffffffff1603611a1a576040517f08c379a0000000000000000000000000000000000000000000000000000000008152600401611a1190613b21565b60405180910390fd5b7f4140c73226c8ea512653d2920a7fbe10a0c0fe3c5f07aee8be2cad8b2b9a772f81604051611a499190613344565b60405180910390a1600960003373ffffffffffffffffffffffffffffffffffffffff1673ffffffffffffffffffffffffffffffffffffffff16815260200190815260200160002060008281526020019081526020016000206000611aad9190612d01565b600a8181548110611ac157611ac061436e565b5b9060005260206000200160009055600b600082815260200190815260200160002060006101000a81549060ff021916905550565b600881805160208101820180518482526020830160208501208183528095505050505050600091509050806000015490806001018054611b349061378f565b80601f0160208091040260200160405190810160405280929190818152602001828054611b609061378f565b8015611bad5780601f10611b8257610100808354040283529160200191611bad565b820191906000526020600020905b815481529060010190602001808311611b9057829003601f168201915b505050505090806002018054611bc29061378f565b80601f0160208091040260200160405190810160405280929190818152602001828054611bee9061378f565b8015611c3b5780601f10611c1057610100808354040283529160200191611c3b565b820191906000526020600020905b815481529060010190602001808311611c1e57829003601f168201915b505050505090806003018054611c509061378f565b80601f0160208091040260200160405190810160405280929190818152602001828054611c7c9061378f565b8015611cc95780601f10611c9e57610100808354040283529160200191611cc9565b820191906000526020600020905b815481529060010190602001808311611cac57829003601f168201915b505050505090806004018054611cde9061378f565b80601f0160208091040260200160405190810160405280929190818152602001828054611d0a9061378f565b8015611d575780601f10611d2c57610100808354040283529160200191611d57565b820191906000526020600020905b815481529060010190602001808311611d3a57829003601f168201915b5050505050905085565b600660003373ffffffffffffffffffffffffffffffffffffffff1673ffffffffffffffffffffffffffffffffffffffff16815260200190815260200160002060060160009054906101000a900460ff16611df0576040517f08c379a0000000000000000000000000000000000000000000000000000000008152600401611de790613a8f565b60405180910390fd5b600073ffffffffffffffffffffffffffffffffffffffff163373ffffffffffffffffffffffffffffffffffffffff1603611e5f576040517f08c379a0000000000000000000000000000000000000000000000000000000008152600401611e5690613b21565b60405180910390fd5b80600760003373ffffffffffffffffffffffffffffffffffffffff1673ffffffffffffffffffffffffffffffffffffffff16815260200190815260200160002060008381526020019081526020016000206000015414611ef4576040517f08c379a0000000000000000000000000000000000000000000000000000000008152600401611eeb906143e9565b60405180910390fd5b807faa7b178b937dc7e7342b585173f310ad8f355bfd84c1210e41c1f0c3edc7b4c960405160405180910390a2600760003373ffffffffffffffffffffffffffffffffffffffff1673ffffffffffffffffffffffffffffffffffffffff1681526020019081526020016000206000828152602001908152602001600020600080820160009055600182016000611f8a9190612d01565b600282016000611f9a9190612d01565b600382016000611faa9190612d01565b600482016000611fba9190612d01565b50506008600760003373ffffffffffffffffffffffffffffffffffffffff1673ffffffffffffffffffffffffffffffffffffffff168152602001908152602001600020600083815260200190815260200160002060010160405161201e919061448c565b90815260200160405180910390206000808201600090556001820160006120459190612d01565b6002820160006120559190612d01565b6003820160006120659190612d01565b6004820160006120759190612d01565b505050565b600660003373ffffffffffffffffffffffffffffffffffffffff1673ffffffffffffffffffffffffffffffffffffffff16815260200190815260200160002060060160009054906101000a900460ff16612109576040517f08c379a000000000000000000000000000000000000000000000000000000000815260040161210090613a8f565b60405180910390fd5b600073ffffffffffffffffffffffffffffffffffffffff163373ffffffffffffffffffffffffffffffffffffffff1603612178576040517f08c379a000000000000000000000000000000000000000000000000000000000815260040161216f90613b21565b60405180910390fd5b6000429050807f9376d1f5ae2781161467d7ecca7bb235a2f861272b40eca70ea487d3005004d060405160405180910390a281600960003373ffffffffffffffffffffffffffffffffffffffff1673ffffffffffffffffffffffffffffffffffffffff168152602001908152602001600020600083815260200190815260200160002090816122079190613e9d565b50600a8190806001815401808255809150506001900390600052602060002001600090919091909150556001600b600083815260200190815260200160002060006101000a81548160ff0219169083151502179055505050565b600073ffffffffffffffffffffffffffffffffffffffff163373ffffffffffffffffffffffffffffffffffffffff16036122d0576040517f08c379a00000000000000000000000000000000000000000000000000000000081526004016122c7906144ef565b60405180910390fd5b60008054906101000a900473ffffffffffffffffffffffffffffffffffffffff1673ffffffffffffffffffffffffffffffffffffffff163373ffffffffffffffffffffffffffffffffffffffff160361235e576040517f08c379a000000000000000000000000000000000000000000000000000000000815260040161235590614581565b60405180910390fd5b600660003373ffffffffffffffffffffffffffffffffffffffff1673ffffffffffffffffffffffffffffffffffffffff16815260200190815260200160002060060160009054906101000a900460ff166123ed576040517f08c379a00000000000000000000000000000000000000000000000000000000081526004016123e490614613565b60405180910390fd5b6000855111612431576040517f08c379a000000000000000000000000000000000000000000000000000000000815260040161242890613fe1565b60405180910390fd5b6000845111612475576040517f08c379a000000000000000000000000000000000000000000000000000000000815260040161246c9061404d565b60405180910390fd5b60008351116124b9576040517f08c379a00000000000000000000000000000000000000000000000000000000081526004016124b0906140b9565b60405180910390fd5b60008251116124fd576040517f08c379a00000000000000000000000000000000000000000000000000000000081526004016124f490614125565b60405180910390fd5b6000602060ff1611612544576040517f08c379a000000000000000000000000000000000000000000000000000000000815260040161253b906140b9565b60405180910390fd5b60004244604051602001612559929190614654565b6040516020818303038152906040528051906020012060001c60001b90506000828260405160200161258c929190614680565b6040516020818303038152906040528051906020012090503373ffffffffffffffffffffffffffffffffffffffff167f561138658ca49a8540dc70dcfe64c9026c1c5b9344642242dd6562970f9c127860405160405180910390a26040518060e001604052803373ffffffffffffffffffffffffffffffffffffffff16815260200188815260200187815260200186815260200185815260200182815260200160011515815250600660003373ffffffffffffffffffffffffffffffffffffffff1673ffffffffffffffffffffffffffffffffffffffff16815260200190815260200160002060008201518160000160006101000a81548173ffffffffffffffffffffffffffffffffffffffff021916908373ffffffffffffffffffffffffffffffffffffffff16021790555060208201518160010190816126ce9190613e9d565b5060408201518160020190816126e49190613e9d565b5060608201518160030190816126fa9190613e9d565b5060808201518160040190816127109190613e9d565b5060a0820151816005015560c08201518160060160006101000a81548160ff02191690831515021790555090505050505050505050565b60008054906101000a900473ffffffffffffffffffffffffffffffffffffffff1673ffffffffffffffffffffffffffffffffffffffff163373ffffffffffffffffffffffffffffffffffffffff16146127d5576040517f08c379a00000000000000000000000000000000000000000000000000000000081526004016127cc90613832565b60405180910390fd5b600073ffffffffffffffffffffffffffffffffffffffff163373ffffffffffffffffffffffffffffffffffffffff1603612844576040517f08c379a000000000000000000000000000000000000000000000000000000000815260040161283b90613832565b60405180910390fd5b600560008060009054906101000a900473ffffffffffffffffffffffffffffffffffffffff1673ffffffffffffffffffffffffffffffffffffffff1673ffffffffffffffffffffffffffffffffffffffff168152602001908152602001600020600080820160006101000a81549073ffffffffffffffffffffffffffffffffffffffff021916905560018201600090556002820160006101000a81549060ff021916905550508073ffffffffffffffffffffffffffffffffffffffff167fac9a252a3ed2d3fcc198677953ffe98ac492e191a4605978c655f8ce4ae8067660405160405180910390a2806000806101000a81548173ffffffffffffffffffffffffffffffffffffffff021916908373ffffffffffffffffffffffffffffffffffffffff160217905550600560008060009054906101000a900473ffffffffffffffffffffffffffffffffffffffff1673ffffffffffffffffffffffffffffffffffffffff1673ffffffffffffffffffffffffffffffffffffffff1681526020019081526020016000205050565b600c818051602081018201805184825260208301602085012081835280955050505050506000915090505481565b60066020528060005260406000206000915090508060000160009054906101000a900473ffffffffffffffffffffffffffffffffffffffff1690806001018054612a489061378f565b80601f0160208091040260200160405190810160405280929190818152602001828054612a749061378f565b8015612ac15780601f10612a9657610100808354040283529160200191612ac1565b820191906000526020600020905b815481529060010190602001808311612aa457829003601f168201915b505050505090806002018054612ad69061378f565b80601f0160208091040260200160405190810160405280929190818152602001828054612b029061378f565b8015612b4f5780601f10612b2457610100808354040283529160200191612b4f565b820191906000526020600020905b815481529060010190602001808311612b3257829003601f168201915b505050505090806003018054612b649061378f565b80601f0160208091040260200160405190810160405280929190818152602001828054612b909061378f565b8015612bdd5780601f10612bb257610100808354040283529160200191612bdd565b820191906000526020600020905b815481529060010190602001808311612bc057829003601f168201915b505050505090806004018054612bf29061378f565b80601f0160208091040260200160405190810160405280929190818152602001828054612c1e9061378f565b8015612c6b5780601f10612c4057610100808354040283529160200191612c6b565b820191906000526020600020905b815481529060010190602001808311612c4e57829003601f168201915b5050505050908060050154908060060160009054906101000a900460ff16905087565b600081604051602001612ca19190613749565b6040516020818303038152906040528051906020012083604051602001612cc89190613749565b6040516020818303038152906040528051906020012014905092915050565b604051806040016040528060608152602001606081525090565b508054612d0d9061378f565b6000825580601f10612d1f5750612d3e565b601f016020900490600052602060002090810190612d3d9190612d41565b5b50565b5b80821115612d5a576000816000905550600101612d42565b5090565b6000604051905090565b600080fd5b600080fd5b600080fd5b600080fd5b6000601f19601f8301169050919050565b7f4e487b7100000000000000000000000000000000000000000000000000000000600052604160045260246000fd5b612dc582612d7c565b810181811067ffffffffffffffff82111715612de457612de3612d8d565b5b80604052505050565b6000612df7612d5e565b9050612e038282612dbc565b919050565b600067ffffffffffffffff821115612e2357612e22612d8d565b5b612e2c82612d7c565b9050602081019050919050565b82818337600083830152505050565b6000612e5b612e5684612e08565b612ded565b905082815260208101848484011115612e7757612e76612d77565b5b612e82848285612e39565b509392505050565b600082601f830112612e9f57612e9e612d72565b5b8135612eaf848260208601612e48565b91505092915050565b600060208284031215612ece57612ecd612d68565b5b600082013567ffffffffffffffff811115612eec57612eeb612d6d565b5b612ef884828501612e8a565b91505092915050565b600081519050919050565b600082825260208201905092915050565b60005b83811015612f3b578082015181840152602081019050612f20565b60008484015250505050565b6000612f5282612f01565b612f5c8185612f0c565b9350612f6c818560208601612f1d565b612f7581612d7c565b840191505092915050565b60006040830160008301518482036000860152612f9d8282612f47565b91505060208301518482036020860152612fb78282612f47565b9150508091505092915050565b60006020820190508181036000830152612fde8184612f80565b905092915050565b6000819050919050565b612ff981612fe6565b811461300457600080fd5b50565b60008135905061301681612ff0565b92915050565b60006020828403121561303257613031612d68565b5b600061304084828501613007565b91505092915050565b600082825260208201905092915050565b600061306582612f01565b61306f8185613049565b935061307f818560208601612f1d565b61308881612d7c565b840191505092915050565b600060408201905081810360008301526130ad818561305a565b905081810360208301526130c1818461305a565b90509392505050565b6000819050919050565b6130dd816130ca565b81146130e857600080fd5b50565b6000813590506130fa816130d4565b92915050565b6000806040838503121561311757613116612d68565b5b6000613125858286016130eb565b9250506020613136858286016130eb565b9150509250929050565b6000806000806080858703121561315a57613159612d68565b5b600085013567ffffffffffffffff81111561317857613177612d6d565b5b61318487828801612e8a565b945050602061319587828801613007565b935050604085013567ffffffffffffffff8111156131b6576131b5612d6d565b5b6131c287828801612e8a565b925050606085013567ffffffffffffffff8111156131e3576131e2612d6d565b5b6131ef87828801612e8a565b91505092959194509250565b6000806000806080858703121561321557613214612d68565b5b600085013567ffffffffffffffff81111561323357613232612d6d565b5b61323f87828801612e8a565b945050602085013567ffffffffffffffff8111156132605761325f612d6d565b5b61326c87828801612e8a565b935050604085013567ffffffffffffffff81111561328d5761328c612d6d565b5b61329987828801612e8a565b925050606085013567ffffffffffffffff8111156132ba576132b9612d6d565b5b6132c687828801612e8a565b91505092959194509250565b60008115159050919050565b6132e7816132d2565b82525050565b600060208201905061330260008301846132de565b92915050565b60006020828403121561331e5761331d612d68565b5b600061332c848285016130eb565b91505092915050565b61333e81612fe6565b82525050565b60006020820190506133596000830184613335565b92915050565b600073ffffffffffffffffffffffffffffffffffffffff82169050919050565b600061338a8261335f565b9050919050565b61339a8161337f565b81146133a557600080fd5b50565b6000813590506133b781613391565b92915050565b600080604083850312156133d4576133d3612d68565b5b60006133e2858286016133a8565b92505060206133f385828601613007565b9150509250929050565b600060a0820190506134126000830188613335565b8181036020830152613424818761305a565b90508181036040830152613438818661305a565b9050818103606083015261344c818561305a565b90508181036080830152613460818461305a565b90509695505050505050565b600081519050919050565b600082825260208201905092915050565b6000819050602082019050919050565b6134a181612fe6565b82525050565b60006134b38383613498565b60208301905092915050565b6000602082019050919050565b60006134d78261346c565b6134e18185613477565b93506134ec83613488565b8060005b8381101561351d57815161350488826134a7565b975061350f836134bf565b9250506001810190506134f0565b5085935050505092915050565b6000602082019050818103600083015261354481846134cc565b905092915050565b600080600080600060a0868803121561356857613567612d68565b5b600086013567ffffffffffffffff81111561358657613585612d6d565b5b61359288828901612e8a565b955050602086013567ffffffffffffffff8111156135b3576135b2612d6d565b5b6135bf88828901612e8a565b945050604086013567ffffffffffffffff8111156135e0576135df612d6d565b5b6135ec88828901612e8a565b935050606086013567ffffffffffffffff81111561360d5761360c612d6d565b5b61361988828901612e8a565b925050608061362a888289016130eb565b9150509295509295909350565b60006020828403121561364d5761364c612d68565b5b600061365b848285016133a8565b91505092915050565b61366d8161337f565b82525050565b61367c816130ca565b82525050565b600060e082019050613697600083018a613664565b81810360208301526136a9818961305a565b905081810360408301526136bd818861305a565b905081810360608301526136d1818761305a565b905081810360808301526136e5818661305a565b90506136f460a0830185613673565b61370160c08301846132de565b98975050505050505050565b600081905092915050565b600061372382612f01565b61372d818561370d565b935061373d818560208601612f1d565b80840191505092915050565b60006137558284613718565b915081905092915050565b7f4e487b7100000000000000000000000000000000000000000000000000000000600052602260045260246000fd5b600060028204905060018216806137a757607f821691505b6020821081036137ba576137b9613760565b5b50919050565b7f4f6e6c792073797374656d206f776e65722063616e20706572666f726d20746860008201527f697320616374696f6e0000000000000000000000000000000000000000000000602082015250565b600061381c602983613049565b9150613827826137c0565b604082019050919050565b6000602082019050818103600083015261384b8161380f565b9050919050565b60006020820190506138676000830184613673565b92915050565b7f496e76616c6964206f6c642070617373776f7264000000000000000000000000600082015250565b60006138a3601483613049565b91506138ae8261386d565b602082019050919050565b600060208201905081810360008301526138d281613896565b9050919050565b7f50617373776f72642073686f756c64206e6f7420626520656d70747900000000600082015250565b600061390f601c83613049565b915061391a826138d9565b602082019050919050565b6000602082019050818103600083015261393e81613902565b9050919050565b7f496e76616c6964206e65772070617373776f7264000000000000000000000000600082015250565b600061397b601483613049565b915061398682613945565b602082019050919050565b600060208201905081810360008301526139aa8161396e565b9050919050565b7f4e6f74206c6f6767656420696e00000000000000000000000000000000000000600082015250565b60006139e7600d83613049565b91506139f2826139b1565b602082019050919050565b60006020820190508181036000830152613a16816139da565b9050919050565b7f4f6e6c79206d616e7566616374757265722063616e206164642072657461696c60008201527f65722064657461696c7300000000000000000000000000000000000000000000602082015250565b6000613a79602a83613049565b9150613a8482613a1d565b604082019050919050565b60006020820190508181036000830152613aa881613a6c565b9050919050565b7f4f6e6c79206d616e7566616374757265722063616e20706572666f726d20746860008201527f697320616374696f6e0000000000000000000000000000000000000000000000602082015250565b6000613b0b602983613049565b9150613b1682613aaf565b604082019050919050565b60006020820190508181036000830152613b3a81613afe565b9050919050565b7f486173682069736e27742073746f726564000000000000000000000000000000600082015250565b6000613b77601183613049565b9150613b8282613b41565b602082019050919050565b60006020820190508181036000830152613ba681613b6a565b9050919050565b7f49442069736e27742073746f7265640000000000000000000000000000000000600082015250565b6000613be3600f83613049565b9150613bee82613bad565b602082019050919050565b60006020820190508181036000830152613c1281613bd6565b9050919050565b7f4974656d206e616d652063616e6e6f7420626520656d70747900000000000000600082015250565b6000613c4f601983613049565b9150613c5a82613c19565b602082019050919050565b60006020820190508181036000830152613c7e81613c42565b9050919050565b7f4465736372697074696f6e2063616e6e6f7420626520656d7074790000000000600082015250565b6000613cbb601b83613049565b9150613cc682613c85565b602082019050919050565b60006020820190508181036000830152613cea81613cae565b9050919050565b60008190508160005260206000209050919050565b60006020601f8301049050919050565b600082821b905092915050565b600060088302613d537fffffffffffffffffffffffffffffffffffffffffffffffffffffffffffffffff82613d16565b613d5d8683613d16565b95508019841693508086168417925050509392505050565b6000819050919050565b6000613d9a613d95613d9084612fe6565b613d75565b612fe6565b9050919050565b6000819050919050565b613db483613d7f565b613dc8613dc082613da1565b848454613d23565b825550505050565b600090565b613ddd613dd0565b613de8818484613dab565b505050565b5b81811015613e0c57613e01600082613dd5565b600181019050613dee565b5050565b601f821115613e5157613e2281613cf1565b613e2b84613d06565b81016020851015613e3a578190505b613e4e613e4685613d06565b830182613ded565b50505b505050565b600082821c905092915050565b6000613e7460001984600802613e56565b1980831691505092915050565b6000613e8d8383613e63565b9150826002028217905092915050565b613ea682612f01565b67ffffffffffffffff811115613ebf57613ebe612d8d565b5b613ec9825461378f565b613ed4828285613e10565b600060209050601f831160018114613f075760008415613ef5578287015190505b613eff8582613e81565b865550613f67565b601f198416613f1586613cf1565b60005b82811015613f3d57848901518255600182019150602085019450602081019050613f18565b86831015613f5a5784890151613f56601f891682613e63565b8355505b6001600288020188555050505b505050505050565b7f4d616e756661637475726572206e616d652063616e6e6f7420626520656d707460008201527f7900000000000000000000000000000000000000000000000000000000000000602082015250565b6000613fcb602183613049565b9150613fd682613f6f565b604082019050919050565b60006020820190508181036000830152613ffa81613fbe565b9050919050565b7f4c6f636174696f6e206e616d652063616e6e6f7420626520656d707479000000600082015250565b6000614037601d83613049565b915061404282614001565b602082019050919050565b600060208201905081810360008301526140668161402a565b9050919050565b7f456d61696c20616464726573732063616e6e6f7420626520656d707479000000600082015250565b60006140a3601d83613049565b91506140ae8261406d565b602082019050919050565b600060208201905081810360008301526140d281614096565b9050919050565b7f50686f6e65206e756d6265722063616e6e6f7420626520656d70747900000000600082015250565b600061410f601c83613049565b915061411a826140d9565b602082019050919050565b6000602082019050818103600083015261413e81614102565b9050919050565b6000602082019050818103600083015261415f818461305a565b905092915050565b7f4e487b7100000000000000000000000000000000000000000000000000000000600052601160045260246000fd5b60006141a182612fe6565b91507fffffffffffffffffffffffffffffffffffffffffffffffffffffffffffffffff82036141d3576141d2614167565b5b600182019050919050565b6000815490506141ed8161378f565b9050919050565b8181036142025750506142da565b61420b826141de565b67ffffffffffffffff81111561422457614223612d8d565b5b61422e825461378f565b614239828285613e10565b6000601f8311600181146142685760008415614256578287015490505b6142608582613e81565b8655506142d3565b601f19841661427687613cf1565b965061428186613cf1565b60005b828110156142a957848901548255600182019150600185019450602081019050614284565b868310156142c657848901546142c2601f891682613e63565b8355505b6001600288020188555050505b5050505050505b565b7f496e76616c69642070617373776f7264206f66206163636f756e74206164647260008201527f6573730000000000000000000000000000000000000000000000000000000000602082015250565b6000614338602383613049565b9150614343826142dc565b604082019050919050565b600060208201905081810360008301526143678161432b565b9050919050565b7f4e487b7100000000000000000000000000000000000000000000000000000000600052603260045260246000fd5b7f52657461696c6572206e6f7420666f756e640000000000000000000000000000600082015250565b60006143d3601283613049565b91506143de8261439d565b602082019050919050565b60006020820190508181036000830152614402816143c6565b9050919050565b600081546144168161378f565b614420818661370d565b9450600182166000811461443b576001811461445057614483565b60ff1983168652811515820286019350614483565b61445985613cf1565b60005b8381101561447b5781548189015260018201915060208101905061445c565b838801955050505b50505092915050565b60006144988284614409565b915081905092915050565b7f41646472657373206e6f742076616c6964000000000000000000000000000000600082015250565b60006144d9601183613049565b91506144e4826144a3565b602082019050919050565b60006020820190508181036000830152614508816144cc565b9050919050565b7f416464726573732073686f756c646e27742062652073797374656d206f776e6560008201527f7200000000000000000000000000000000000000000000000000000000000000602082015250565b600061456b602183613049565b91506145768261450f565b604082019050919050565b6000602082019050818103600083015261459a8161455e565b9050919050565b7f4d616e75666163747572657220697320616c726561647920726567697374657260008201527f6564000000000000000000000000000000000000000000000000000000000000602082015250565b60006145fd602283613049565b9150614608826145a1565b604082019050919050565b6000602082019050818103600083015261462c816145f0565b9050919050565b6000819050919050565b61464e61464982612fe6565b614633565b82525050565b6000614660828561463d565b602082019150614670828461463d565b6020820191508190509392505050565b60006040820190506146956000830185613673565b6146a26020830184613673565b939250505056fea26469706673582212208934e1c2e0e2468bc2407b2896c33a973a8b4e6786f3662b9a96c4afd64da50464736f6c63430008130033",
  "immutableReferences": {},
  "source": "// SPDX-License-Identifier: MIT\npragma solidity ^0.8.19;\n\ncontract QrCode {\n    error HashIsntStored(uint blockId);\n\n    event ManufacturerAdded(address indexed manufacturer);\n    event RetailerAdded(string retailer);\n    event RetailerRemoved(uint256 indexed retailerID);\n\n    event PasswordChanged(address indexed admin);\n    event ownershipTransferred(address indexed newAdmin);\n\n    event ItemAdded_M(uint256 indexed id);\n    event ItemDetailsUpdated_M(\n        uint256 indexed id,\n        string itemName,\n        string description\n    );\n    event ItemRecorded_M(uint256 indexed id);\n    event qrHashStored(uint indexed timestamp);\n    // event ItemNotFound(string qrHash);\n    event qrHashDeleted(uint256 _blockId);\n\n    struct Manufacturer {\n        address manufacturer;\n        string name;\n        string location;\n        string email;\n        string phoneNumber;\n        bytes32 password;\n        bool isSignedUp;\n    }\n\n    struct Retailer {\n        uint256 retailerID;\n        string name;\n        string location;\n        string email;\n        string phoneNumber;\n    }\n\n    struct ItemDetails {\n        string itemName;\n        string description;\n    }\n\n    //@dev create system account structure\n    struct SystemOwner {\n        address sysOwner;\n        bytes32 password /*audit*/;\n        bool isLogin;\n    }\n\n    address private owner;\n    SystemOwner private sysowner;\n\n    uint256 public s_retailerID;\n\n    mapping(address => SystemOwner) private sysOwnerMap;\n\n    mapping(address => Manufacturer) public manufacturerDetails;\n    mapping(address => mapping(uint => Retailer))\n        public manufacturerToRetailerDetails;\n    mapping(string => Retailer) public retailerDetails;\n\n    //STORING\n    mapping(address => mapping(uint256 => string))\n        private qrHashMapByManufacturer; // stored by manufacturer when generating hash + id\n\n    uint256[] private manufacturerIDHashArr; //scanned by only manufacturer\n    mapping(uint => bool) private storedIDs; //just stored\n\n    //MATCHING\n    mapping(string => uint256) public matchHashToId; //used by users when scanning\n\n    mapping(string => bool) public matchedItems; //matched hash to items\n\n    mapping(uint256 => ItemDetails) public itemDetails;\n\n    constructor() {\n        owner = msg.sender;\n        sysowner = SystemOwner(owner, keccak256(abi.encode((\"admin\"))), false);\n        sysOwnerMap[owner] = sysowner;\n    }\n\n    modifier onlySysOwner() {\n        require(\n            msg.sender == owner,\n            \"Only system owner can perform this action\"\n        );\n        require(\n            msg.sender != address(0),\n            \"Only system owner can perform this action\"\n        );\n        _;\n    }\n\n    modifier onlyManufacturer() {\n        require(\n            manufacturerDetails[msg.sender].isSignedUp,\n            \"Only manufacturer can add retailer details\"\n        );\n        require(\n            msg.sender != address(0),\n            \"Only manufacturer can perform this action\"\n        );\n        _;\n    }\n\n    /*@dev System Owner functions*/\n    function loginSysOwner(\n        bytes32 _password\n    ) external onlySysOwner returns (bool) {\n        require(\n            sysOwnerMap[msg.sender].password ==\n                keccak256(abi.encode(_password)),\n            \"Invalid password of account address\"\n        );\n        sysOwnerMap[msg.sender].isLogin = true;\n        return true;\n    }\n\n    function changePassword(\n        bytes32 oldPassword,\n        bytes32 _newPassword\n    ) external onlySysOwner {\n        require(\n            sysOwnerMap[msg.sender].password ==\n                keccak256(abi.encode(oldPassword)),\n            \"Invalid old password\"\n        );\n        require(_newPassword.length > 0, \"Password should not be empty\");\n        require(\n            sysOwnerMap[msg.sender].password !=\n                keccak256(abi.encode(_newPassword)),\n            \"Invalid new password\"\n        );\n        require(sysOwnerMap[msg.sender].isLogin == true, \"Not logged in\");\n\n        emit PasswordChanged(msg.sender);\n\n        // sysowner = SystemOwner(,keccak256(abi.encode(_newPassword)),);\n        sysOwnerMap[msg.sender].password = _newPassword;\n    }\n\n    function transferOwnership(address _address) external onlySysOwner {\n        delete sysOwnerMap[owner];\n        emit ownershipTransferred(_address);\n        owner = _address;\n        sysOwnerMap[owner];\n    }\n\n    /*@dev Manufacturer functions*/\n    function signUp(\n        string memory _manfName,\n        string memory _location,\n        string memory _email,\n        string memory _phoneNumber,\n        bytes32 _password\n    ) external {\n        require(msg.sender != address(0), \"Address not valid\");\n        require(msg.sender != owner, \"Address shouldn't be system owner\");\n        require(\n            manufacturerDetails[msg.sender].isSignedUp,\n            \"Manufacturer is already registered\"\n        );\n        require(\n            bytes(_manfName).length > 0,\n            \"Manufacturer name cannot be empty\"\n        );\n        require(bytes(_location).length > 0, \"Location name cannot be empty\");\n        require(bytes(_email).length > 0, \"Email address cannot be empty\");\n        require(bytes(_phoneNumber).length > 0, \"Phone number cannot be empty\");\n        require(_password.length > 0, \"Email address cannot be empty\");\n\n        // Generate a salt (you can use a random number or a unique value)\n        bytes32 salt = bytes32(\n            uint256(\n                keccak256(abi.encodePacked(block.timestamp, block.prevrandao))\n            )\n        );\n\n        // Hash the password with the salt\n        bytes32 passwordHash = keccak256(abi.encode(_password, salt));\n\n        emit ManufacturerAdded(msg.sender);\n        manufacturerDetails[msg.sender] = Manufacturer(\n            msg.sender,\n            _manfName,\n            _location,\n            _email,\n            _phoneNumber,\n            passwordHash,\n            true\n        );\n    }\n\n    function addRetailerInfo(\n        string memory _name,\n        string memory _location,\n        string memory _email,\n        string memory _phoneNumber\n    ) external onlyManufacturer {\n        require(bytes(_name).length > 0, \"Manufacturer name cannot be empty\");\n        require(bytes(_location).length > 0, \"Location name cannot be empty\");\n        require(bytes(_email).length > 0, \"Email address cannot be empty\");\n        require(bytes(_phoneNumber).length > 0, \"Phone number cannot be empty\");\n\n        emit RetailerAdded(_name);\n        s_retailerID++;\n        manufacturerToRetailerDetails[msg.sender][s_retailerID] = Retailer(\n            s_retailerID,\n            _name,\n            _location,\n            _email,\n            _phoneNumber\n        );\n        retailerDetails[_name] = manufacturerToRetailerDetails[msg.sender][\n            s_retailerID\n        ];\n    }\n\n    function removeRetailer(uint256 _retailerID) external onlyManufacturer {\n        require(\n            manufacturerToRetailerDetails[msg.sender][_retailerID].retailerID ==\n                _retailerID,\n            \"Retailer not found\"\n        );\n        emit RetailerRemoved(_retailerID);\n        delete manufacturerToRetailerDetails[msg.sender][_retailerID];\n        delete retailerDetails[\n            manufacturerToRetailerDetails[msg.sender][_retailerID].name\n        ];\n    }\n\n    function storeQrHash(string memory _qrHash) external onlyManufacturer {\n        uint256 timestamp = block.timestamp;\n        emit qrHashStored(timestamp);\n        qrHashMapByManufacturer[msg.sender][timestamp] = _qrHash;\n        manufacturerIDHashArr.push(timestamp);\n        storedIDs[timestamp] = true;\n    }\n\n    function deleteQrHash(uint _blockId) external onlyManufacturer {\n        emit qrHashDeleted(_blockId);\n        delete qrHashMapByManufacturer[msg.sender][_blockId];\n        delete manufacturerIDHashArr[_blockId];\n        delete storedIDs[_blockId];\n    }\n\n    //@dev returns qrcodeHash array to the manufacturer frontend\n    function getManfItemIDList()\n        external\n        view\n        onlyManufacturer\n        returns (uint256[] memory)\n    {\n        return manufacturerIDHashArr;\n    }\n\n    //@dev !! views qrcodeHash and ID one by one. Used when manf wants to match stored ids & hashes to every item\n    function getQrHashAndID()\n        private\n        view\n        onlyManufacturer\n        returns (string memory _qrHash, uint256 _blockId)\n    {\n        _qrHash = qrHashMapByManufacturer[msg.sender][_blockId];\n\n        return (_qrHash, _blockId); //used at addItemDetails\n    }\n\n    /*@dev matches the stored hashes to each item & returns a bool for evidence */\n    function addItemDetails(\n        string memory _qrHash,\n        uint256 _blockId,\n        string memory _itemName,\n        string memory _description\n    ) external onlyManufacturer {\n        require(\n            compareStrings(\n                qrHashMapByManufacturer[msg.sender][_blockId],\n                _qrHash\n            ),\n            \"Hash isn't stored\"\n        );\n        require(storedIDs[_blockId] == true, \"ID isn't stored\");\n        require(bytes(_itemName).length > 0, \"Item name cannot be empty\");\n        require(bytes(_description).length > 0, \"Description cannot be empty\");\n\n        emit ItemAdded_M(_blockId);\n        emit ItemDetailsUpdated_M(_blockId, _itemName, _description);\n        emit ItemRecorded_M(_blockId);\n\n        matchHashToId[_qrHash] = _blockId; //update by matching\n        matchedItems[_qrHash] = true;\n\n        itemDetails[_blockId] = ItemDetails(_itemName, _description);\n    }\n\n    function scanItem(string memory _qrHash) external view returns (bool) {\n        if (matchedItems[_qrHash]) {\n            return true;\n        } else {\n            return false;\n        }\n    }\n\n    function moreDetailsForScannedItem(\n        string memory _qrHash\n    ) external view returns (ItemDetails memory) {\n        uint id = matchHashToId[_qrHash];\n        return itemDetails[id];\n    }\n\n    // Cannot directly compare strings in Solidity\n    // This function hashes the 2 strings and then compares the 2 hashes\n    function compareStrings(\n        string memory a,\n        string memory b\n    ) internal pure returns (bool) {\n        return keccak256(abi.encodePacked(a)) == keccak256(abi.encodePacked(b));\n    }\n}\n",
  "sourcePath": "/home/temba/finalHashthonAlcoshield/AlcoShield/contracts/QrCode.sol",
  "compiler": {
    "name": "solc",
    "version": "0.8.19+commit.7dd6d404.Emscripten.clang"
  },
  "schemaVersion": "3.4.16",
  "updatedAt": "2024-02-17T12:41:13.917Z",
  "devdoc": {
    "kind": "dev",
    "methods": {},
    "version": 1
  },
  "userdoc": {
    "kind": "user",
    "methods": {},
    "version": 1
  }
}