{
  "contractName": "QrCode",
  "abi": [
    {
      "inputs": [],
      "stateMutability": "nonpayable",
      "type": "constructor"
    },
    {
      "inputs": [
        {
          "internalType": "uint256",
          "name": "blockId",
          "type": "uint256"
        }
      ],
      "name": "HashIsntStored",
      "type": "error"
    },
    {
      "anonymous": false,
      "inputs": [
        {
          "indexed": true,
          "internalType": "uint256",
          "name": "id",
          "type": "uint256"
        }
      ],
      "name": "ItemAdded_M",
      "type": "event"
    },
    {
      "anonymous": false,
      "inputs": [
        {
          "indexed": true,
          "internalType": "uint256",
          "name": "id",
          "type": "uint256"
        },
        {
          "indexed": false,
          "internalType": "string",
          "name": "itemName",
          "type": "string"
        },
        {
          "indexed": false,
          "internalType": "string",
          "name": "description",
          "type": "string"
        }
      ],
      "name": "ItemDetailsUpdated_M",
      "type": "event"
    },
    {
      "anonymous": false,
      "inputs": [
        {
          "indexed": true,
          "internalType": "uint256",
          "name": "id",
          "type": "uint256"
        }
      ],
      "name": "ItemRecorded_M",
      "type": "event"
    },
    {
      "anonymous": false,
      "inputs": [
        {
          "indexed": true,
          "internalType": "address",
          "name": "manufacturer",
          "type": "address"
        }
      ],
      "name": "ManufacturerAdded",
      "type": "event"
    },
    {
      "anonymous": false,
      "inputs": [
        {
          "indexed": true,
          "internalType": "address",
          "name": "admin",
          "type": "address"
        }
      ],
      "name": "PasswordChanged",
      "type": "event"
    },
    {
      "anonymous": false,
      "inputs": [
        {
          "indexed": true,
          "internalType": "address",
          "name": "retailer",
          "type": "address"
        }
      ],
      "name": "RetailerAdded",
      "type": "event"
    },
    {
      "anonymous": false,
      "inputs": [
        {
          "indexed": true,
          "internalType": "address",
          "name": "retailer",
          "type": "address"
        }
      ],
      "name": "RetailerRemoved",
      "type": "event"
    },
    {
      "anonymous": false,
      "inputs": [
        {
          "indexed": true,
          "internalType": "address",
          "name": "newAdmin",
          "type": "address"
        }
      ],
      "name": "ownershipTransferred",
      "type": "event"
    },
    {
      "anonymous": false,
      "inputs": [
        {
          "indexed": false,
          "internalType": "uint256",
          "name": "_blockId",
          "type": "uint256"
        }
      ],
      "name": "qrHashDeleted",
      "type": "event"
    },
    {
      "anonymous": false,
      "inputs": [
        {
          "indexed": true,
          "internalType": "uint256",
          "name": "timestamp",
          "type": "uint256"
        }
      ],
      "name": "qrHashStored",
      "type": "event"
    },
    {
      "inputs": [
        {
          "internalType": "uint256",
          "name": "",
          "type": "uint256"
        }
      ],
      "name": "itemDetails",
      "outputs": [
        {
          "internalType": "string",
          "name": "itemName",
          "type": "string"
        },
        {
          "internalType": "string",
          "name": "description",
          "type": "string"
        }
      ],
      "stateMutability": "view",
      "type": "function",
      "constant": true
    },
    {
      "inputs": [
        {
          "internalType": "address",
          "name": "",
          "type": "address"
        }
      ],
      "name": "manufacturerDetails",
      "outputs": [
        {
          "internalType": "address",
          "name": "manufacturer",
          "type": "address"
        },
        {
          "internalType": "string",
          "name": "name",
          "type": "string"
        },
        {
          "internalType": "string",
          "name": "location",
          "type": "string"
        },
        {
          "internalType": "string",
          "name": "email",
          "type": "string"
        },
        {
          "internalType": "string",
          "name": "phoneNumber",
          "type": "string"
        },
        {
          "internalType": "bytes32",
          "name": "password",
          "type": "bytes32"
        },
        {
          "internalType": "bool",
          "name": "isSignedUp",
          "type": "bool"
        }
      ],
      "stateMutability": "view",
      "type": "function",
      "constant": true
    },
    {
      "inputs": [
        {
          "internalType": "uint256",
          "name": "",
          "type": "uint256"
        }
      ],
      "name": "manufacturerIDHashArr",
      "outputs": [
        {
          "internalType": "uint256",
          "name": "",
          "type": "uint256"
        }
      ],
      "stateMutability": "view",
      "type": "function",
      "constant": true
    },
    {
      "inputs": [
        {
          "internalType": "address",
          "name": "",
          "type": "address"
        },
        {
          "internalType": "address",
          "name": "",
          "type": "address"
        }
      ],
      "name": "manufacturerToRetailerDetails",
      "outputs": [
        {
          "internalType": "address",
          "name": "retailer",
          "type": "address"
        },
        {
          "internalType": "uint256",
          "name": "retailerID",
          "type": "uint256"
        },
        {
          "internalType": "string",
          "name": "name",
          "type": "string"
        },
        {
          "internalType": "string",
          "name": "location",
          "type": "string"
        },
        {
          "internalType": "string",
          "name": "email",
          "type": "string"
        },
        {
          "internalType": "string",
          "name": "phoneNumber",
          "type": "string"
        }
      ],
      "stateMutability": "view",
      "type": "function",
      "constant": true
    },
    {
      "inputs": [
        {
          "internalType": "string",
          "name": "",
          "type": "string"
        }
      ],
      "name": "matchHashToId",
      "outputs": [
        {
          "internalType": "uint256",
          "name": "",
          "type": "uint256"
        }
      ],
      "stateMutability": "view",
      "type": "function",
      "constant": true
    },
    {
      "inputs": [
        {
          "internalType": "string",
          "name": "",
          "type": "string"
        }
      ],
      "name": "matchedItems",
      "outputs": [
        {
          "internalType": "bool",
          "name": "",
          "type": "bool"
        }
      ],
      "stateMutability": "view",
      "type": "function",
      "constant": true
    },
    {
      "inputs": [
        {
          "internalType": "string",
          "name": "",
          "type": "string"
        }
      ],
      "name": "retailerDetails",
      "outputs": [
        {
          "internalType": "address",
          "name": "retailer",
          "type": "address"
        },
        {
          "internalType": "uint256",
          "name": "retailerID",
          "type": "uint256"
        },
        {
          "internalType": "string",
          "name": "name",
          "type": "string"
        },
        {
          "internalType": "string",
          "name": "location",
          "type": "string"
        },
        {
          "internalType": "string",
          "name": "email",
          "type": "string"
        },
        {
          "internalType": "string",
          "name": "phoneNumber",
          "type": "string"
        }
      ],
      "stateMutability": "view",
      "type": "function",
      "constant": true
    },
    {
      "inputs": [
        {
          "internalType": "address",
          "name": "",
          "type": "address"
        }
      ],
      "name": "sysOwnerMap",
      "outputs": [
        {
          "internalType": "address",
          "name": "sysOwner",
          "type": "address"
        },
        {
          "internalType": "bytes32",
          "name": "password",
          "type": "bytes32"
        },
        {
          "internalType": "bool",
          "name": "isLogin",
          "type": "bool"
        }
      ],
      "stateMutability": "view",
      "type": "function",
      "constant": true
    },
    {
      "inputs": [],
      "name": "sysowner",
      "outputs": [
        {
          "internalType": "address",
          "name": "sysOwner",
          "type": "address"
        },
        {
          "internalType": "bytes32",
          "name": "password",
          "type": "bytes32"
        },
        {
          "internalType": "bool",
          "name": "isLogin",
          "type": "bool"
        }
      ],
      "stateMutability": "view",
      "type": "function",
      "constant": true
    },
    {
      "inputs": [
        {
          "internalType": "bytes32",
          "name": "_password",
          "type": "bytes32"
        }
      ],
      "name": "loginSysOwner",
      "outputs": [
        {
          "internalType": "bool",
          "name": "",
          "type": "bool"
        }
      ],
      "stateMutability": "nonpayable",
      "type": "function"
    },
    {
      "inputs": [
        {
          "internalType": "bytes32",
          "name": "oldPassword",
          "type": "bytes32"
        },
        {
          "internalType": "bytes32",
          "name": "_newPassword",
          "type": "bytes32"
        }
      ],
      "name": "changePassword",
      "outputs": [],
      "stateMutability": "nonpayable",
      "type": "function"
    },
    {
      "inputs": [
        {
          "internalType": "address",
          "name": "_address",
          "type": "address"
        }
      ],
      "name": "transferOwnership",
      "outputs": [],
      "stateMutability": "nonpayable",
      "type": "function"
    },
    {
      "inputs": [
        {
          "internalType": "string",
          "name": "_manfName",
          "type": "string"
        },
        {
          "internalType": "string",
          "name": "_location",
          "type": "string"
        },
        {
          "internalType": "string",
          "name": "_email",
          "type": "string"
        },
        {
          "internalType": "string",
          "name": "_phoneNumber",
          "type": "string"
        },
        {
          "internalType": "bytes32",
          "name": "_password",
          "type": "bytes32"
        }
      ],
      "name": "signUp",
      "outputs": [],
      "stateMutability": "nonpayable",
      "type": "function"
    },
    {
      "inputs": [
        {
          "internalType": "address",
          "name": "_retailer",
          "type": "address"
        },
        {
          "internalType": "string",
          "name": "_name",
          "type": "string"
        },
        {
          "internalType": "string",
          "name": "_location",
          "type": "string"
        },
        {
          "internalType": "string",
          "name": "_email",
          "type": "string"
        },
        {
          "internalType": "string",
          "name": "_phoneNumber",
          "type": "string"
        }
      ],
      "name": "addRetailerInfo",
      "outputs": [],
      "stateMutability": "nonpayable",
      "type": "function"
    },
    {
      "inputs": [
        {
          "internalType": "address",
          "name": "_retailer",
          "type": "address"
        }
      ],
      "name": "removeRetailer",
      "outputs": [],
      "stateMutability": "nonpayable",
      "type": "function"
    },
    {
      "inputs": [
        {
          "internalType": "string",
          "name": "_qrHash",
          "type": "string"
        }
      ],
      "name": "storeQrHash",
      "outputs": [],
      "stateMutability": "nonpayable",
      "type": "function"
    },
    {
      "inputs": [
        {
          "internalType": "uint256",
          "name": "_blockId",
          "type": "uint256"
        }
      ],
      "name": "deleteQrHash",
      "outputs": [],
      "stateMutability": "nonpayable",
      "type": "function"
    },
    {
      "inputs": [],
      "name": "getManfItemIDList",
      "outputs": [
        {
          "internalType": "uint256[]",
          "name": "",
          "type": "uint256[]"
        }
      ],
      "stateMutability": "view",
      "type": "function",
      "constant": true
    },
    {
      "inputs": [
        {
          "internalType": "string",
          "name": "_qrHash",
          "type": "string"
        },
        {
          "internalType": "uint256",
          "name": "_blockId",
          "type": "uint256"
        },
        {
          "internalType": "string",
          "name": "_itemName",
          "type": "string"
        },
        {
          "internalType": "string",
          "name": "_description",
          "type": "string"
        }
      ],
      "name": "addItemDetails",
      "outputs": [],
      "stateMutability": "nonpayable",
      "type": "function"
    },
    {
      "inputs": [
        {
          "internalType": "string",
          "name": "_qrHash",
          "type": "string"
        }
      ],
      "name": "scanItem",
      "outputs": [
        {
          "internalType": "bool",
          "name": "",
          "type": "bool"
        }
      ],
      "stateMutability": "view",
      "type": "function",
      "constant": true
    },
    {
      "inputs": [
        {
          "internalType": "string",
          "name": "_qrHash",
          "type": "string"
        }
      ],
      "name": "moreDetailsForScannedItem",
      "outputs": [
        {
          "components": [
            {
              "internalType": "string",
              "name": "itemName",
              "type": "string"
            },
            {
              "internalType": "string",
              "name": "description",
              "type": "string"
            }
          ],
          "internalType": "struct QrCode.ItemDetails",
          "name": "",
          "type": "tuple"
        }
      ],
      "stateMutability": "view",
      "type": "function",
      "constant": true
    }
  ],
  "bytecode": "0x60806040523480156200001157600080fd5b50336000806101000a81548173ffffffffffffffffffffffffffffffffffffffff021916908373ffffffffffffffffffffffffffffffffffffffff160217905550604051806060016040528060008054906101000a900473ffffffffffffffffffffffffffffffffffffffff1673ffffffffffffffffffffffffffffffffffffffff168152602001604051602001620000aa90620002ac565b60405160208183030381529060405280519060200120815260200160001515815250600160008201518160000160006101000a81548173ffffffffffffffffffffffffffffffffffffffff021916908373ffffffffffffffffffffffffffffffffffffffff1602179055506020820151816001015560408201518160020160006101000a81548160ff0219169083151502179055509050506001600560008060009054906101000a900473ffffffffffffffffffffffffffffffffffffffff1673ffffffffffffffffffffffffffffffffffffffff1673ffffffffffffffffffffffffffffffffffffffff1681526020019081526020016000206000820160009054906101000a900473ffffffffffffffffffffffffffffffffffffffff168160000160006101000a81548173ffffffffffffffffffffffffffffffffffffffff021916908373ffffffffffffffffffffffffffffffffffffffff160217905550600182015481600101556002820160009054906101000a900460ff168160020160006101000a81548160ff021916908315150217905550905050620002ce565b600082825260208201905092915050565b7f61646d696e000000000000000000000000000000000000000000000000000000600082015250565b6000620002946005836200024b565b9150620002a1826200025c565b602082019050919050565b60006020820190508181036000830152620002c78162000285565b9050919050565b61491580620002de6000396000f3fe608060405234801561001057600080fd5b50600436106101375760003560e01c80638fd6a8cf116100b8578063e38483a31161007c578063e38483a314610391578063e4145db1146103ad578063ef4834f8146103c9578063f2fde38b146103fb578063fb262c3014610417578063fe244c371461044757610137565b80638fd6a8cf146102bb578063b40a2c67146102f0578063bd9823c91461030c578063de5df3981461033c578063e32a4e461461037157610137565b806365680795116100ff578063656807951461020557806370099ec81461023557806377f40e33146102515780637a788e0a146102815780638d11d5ff1461029f57610137565b80631bef85c01461013c5780631fb4e3f01461016c578063292785fc1461019d5780632bb9cd92146101b95780636030775e146101d5575b600080fd5b6101566004803603810190610151919061318f565b61047d565b604051610163919061329b565b60405180910390f35b610186600480360381019061018191906132f3565b6105f2565b60405161019492919061336a565b60405180910390f35b6101b760048036038101906101b291906133d7565b610726565b005b6101d360048036038101906101ce9190613417565b610ae2565b005b6101ef60048036038101906101ea919061318f565b610e1a565b6040516101fc91906134ed565b60405180910390f35b61021f600480360381019061021a9190613508565b610e60565b60405161022c91906134ed565b60405180910390f35b61024f600480360381019061024a9190613593565b61106e565b005b61026b6004803603810190610266919061318f565b6114bc565b60405161027891906134ed565b60405180910390f35b6102896114f2565b604051610296919061367e565b60405180910390f35b6102b960048036038101906102b491906132f3565b611648565b005b6102d560048036038101906102d0919061318f565b611821565b6040516102e7969594939291906136be565b60405180910390f35b61030a6004803603810190610305919061373b565b611ab3565b005b610326600480360381019061032191906132f3565b612061565b6040516103339190613826565b60405180910390f35b61035660048036038101906103519190613841565b612085565b604051610368969594939291906136be565b60405180910390f35b61037961230e565b60405161038893929190613890565b60405180910390f35b6103ab60048036038101906103a6919061318f565b612353565b005b6103c760048036038101906103c291906138c7565b61253a565b005b6103e360048036038101906103de9190613593565b612a20565b6040516103f293929190613890565b60405180910390f35b61041560048036038101906104109190613593565b612a77565b005b610431600480360381019061042c919061318f565b612d01565b60405161043e9190613826565b60405180910390f35b610461600480360381019061045c9190613593565b612d2f565b60405161047497969594939291906139b2565b60405180910390f35b610485612fbe565b6000600c836040516104979190613a79565b9081526020016040518091039020549050600e60008281526020019081526020016000206040518060400160405290816000820180546104d690613abf565b80601f016020809104026020016040519081016040528092919081815260200182805461050290613abf565b801561054f5780601f106105245761010080835404028352916020019161054f565b820191906000526020600020905b81548152906001019060200180831161053257829003601f168201915b5050505050815260200160018201805461056890613abf565b80601f016020809104026020016040519081016040528092919081815260200182805461059490613abf565b80156105e15780601f106105b6576101008083540402835291602001916105e1565b820191906000526020600020905b8154815290600101906020018083116105c457829003601f168201915b505050505081525050915050919050565b600e60205280600052604060002060009150905080600001805461061590613abf565b80601f016020809104026020016040519081016040528092919081815260200182805461064190613abf565b801561068e5780601f106106635761010080835404028352916020019161068e565b820191906000526020600020905b81548152906001019060200180831161067157829003601f168201915b5050505050908060010180546106a390613abf565b80601f01602080910402602001604051908101604052809291908181526020018280546106cf90613abf565b801561071c5780601f106106f15761010080835404028352916020019161071c565b820191906000526020600020905b8154815290600101906020018083116106ff57829003601f168201915b5050505050905082565b60008054906101000a900473ffffffffffffffffffffffffffffffffffffffff1673ffffffffffffffffffffffffffffffffffffffff163373ffffffffffffffffffffffffffffffffffffffff16146107b4576040517f08c379a00000000000000000000000000000000000000000000000000000000081526004016107ab90613b62565b60405180910390fd5b600073ffffffffffffffffffffffffffffffffffffffff163373ffffffffffffffffffffffffffffffffffffffff1603610823576040517f08c379a000000000000000000000000000000000000000000000000000000000815260040161081a90613b62565b60405180910390fd5b816040516020016108349190613b82565b60405160208183030381529060405280519060200120600560003373ffffffffffffffffffffffffffffffffffffffff1673ffffffffffffffffffffffffffffffffffffffff16815260200190815260200160002060010154146108cd576040517f08c379a00000000000000000000000000000000000000000000000000000000081526004016108c490613c0f565b60405180910390fd5b6000602060ff1611610914576040517f08c379a000000000000000000000000000000000000000000000000000000000815260040161090b90613c7b565b60405180910390fd5b806040516020016109259190613b82565b60405160208183030381529060405280519060200120600560003373ffffffffffffffffffffffffffffffffffffffff1673ffffffffffffffffffffffffffffffffffffffff16815260200190815260200160002060010154036109be576040517f08c379a00000000000000000000000000000000000000000000000000000000081526004016109b590613c0f565b60405180910390fd5b60011515600560003373ffffffffffffffffffffffffffffffffffffffff1673ffffffffffffffffffffffffffffffffffffffff16815260200190815260200160002060020160009054906101000a900460ff16151514610a54576040517f08c379a0000000000000000000000000000000000000000000000000000000008152600401610a4b90613ce7565b60405180910390fd5b3373ffffffffffffffffffffffffffffffffffffffff167f85a52c4d6d605a61db8affa2383ae4d5aeefe6f4363c35174504042b4a0ee9b660405160405180910390a280600560003373ffffffffffffffffffffffffffffffffffffffff1673ffffffffffffffffffffffffffffffffffffffff168152602001908152602001600020600101819055505050565b600660003373ffffffffffffffffffffffffffffffffffffffff1673ffffffffffffffffffffffffffffffffffffffff16815260200190815260200160002060060160009054906101000a900460ff16610b71576040517f08c379a0000000000000000000000000000000000000000000000000000000008152600401610b6890613d79565b60405180910390fd5b600073ffffffffffffffffffffffffffffffffffffffff163373ffffffffffffffffffffffffffffffffffffffff1603610be0576040517f08c379a0000000000000000000000000000000000000000000000000000000008152600401610bd790613e0b565b60405180910390fd5b60011515600b600085815260200190815260200160002060009054906101000a900460ff16151514610c47576040517f08c379a0000000000000000000000000000000000000000000000000000000008152600401610c3e90613e77565b60405180910390fd5b6000825111610c8b576040517f08c379a0000000000000000000000000000000000000000000000000000000008152600401610c8290613ee3565b60405180910390fd5b6000815111610ccf576040517f08c379a0000000000000000000000000000000000000000000000000000000008152600401610cc690613f4f565b60405180910390fd5b827f611520fe479942fc842c72a2974cc0bf4746653a8b34285ba197c7192fd4721d60405160405180910390a2827f63bcdba1660b19ba3aaaf6afe05409cc2811b84ad557ca33f7eda874ac3a89b08383604051610d2e92919061336a565b60405180910390a2827f2c43e921afd657149a59b6382398172493954880204131eb2a51b2846890838960405160405180910390a2604051806040016040528083815260200182815250600e60008581526020019081526020016000206000820151816000019081610da0919061411b565b506020820151816001019081610db6919061411b565b5090505082600c85604051610dcb9190613a79565b9081526020016040518091039020819055506001600d85604051610def9190613a79565b908152602001604051809103902060006101000a81548160ff02191690831515021790555050505050565b6000600d82604051610e2c9190613a79565b908152602001604051809103902060009054906101000a900460ff1615610e565760019050610e5b565b600090505b919050565b60008060009054906101000a900473ffffffffffffffffffffffffffffffffffffffff1673ffffffffffffffffffffffffffffffffffffffff163373ffffffffffffffffffffffffffffffffffffffff1614610ef1576040517f08c379a0000000000000000000000000000000000000000000000000000000008152600401610ee890613b62565b60405180910390fd5b600073ffffffffffffffffffffffffffffffffffffffff163373ffffffffffffffffffffffffffffffffffffffff1603610f60576040517f08c379a0000000000000000000000000000000000000000000000000000000008152600401610f5790613b62565b60405180910390fd5b81604051602001610f719190613b82565b60405160208183030381529060405280519060200120600560003373ffffffffffffffffffffffffffffffffffffffff1673ffffffffffffffffffffffffffffffffffffffff168152602001908152602001600020600101541461100a576040517f08c379a000000000000000000000000000000000000000000000000000000000815260040161100190613c0f565b60405180910390fd5b6001600560003373ffffffffffffffffffffffffffffffffffffffff1673ffffffffffffffffffffffffffffffffffffffff16815260200190815260200160002060020160006101000a81548160ff02191690831515021790555060019050919050565b600660003373ffffffffffffffffffffffffffffffffffffffff1673ffffffffffffffffffffffffffffffffffffffff16815260200190815260200160002060060160009054906101000a900460ff166110fd576040517f08c379a00000000000000000000000000000000000000000000000000000000081526004016110f490613d79565b60405180910390fd5b600073ffffffffffffffffffffffffffffffffffffffff163373ffffffffffffffffffffffffffffffffffffffff160361116c576040517f08c379a000000000000000000000000000000000000000000000000000000000815260040161116390613e0b565b60405180910390fd5b600073ffffffffffffffffffffffffffffffffffffffff16600760003373ffffffffffffffffffffffffffffffffffffffff1673ffffffffffffffffffffffffffffffffffffffff16815260200190815260200160002060008373ffffffffffffffffffffffffffffffffffffffff1673ffffffffffffffffffffffffffffffffffffffff16815260200190815260200160002060000160009054906101000a900473ffffffffffffffffffffffffffffffffffffffff1673ffffffffffffffffffffffffffffffffffffffff160361127a576040517f08c379a000000000000000000000000000000000000000000000000000000000815260040161127190614239565b60405180910390fd5b8073ffffffffffffffffffffffffffffffffffffffff167fdb7176e79cffef81cb01767dd0447a0b24bb72ca9778d4b245581086b2a7e6db60405160405180910390a2600760003373ffffffffffffffffffffffffffffffffffffffff1673ffffffffffffffffffffffffffffffffffffffff16815260200190815260200160002060008273ffffffffffffffffffffffffffffffffffffffff1673ffffffffffffffffffffffffffffffffffffffff168152602001908152602001600020600080820160006101000a81549073ffffffffffffffffffffffffffffffffffffffff021916905560018201600090556002820160006113799190612fd8565b6003820160006113899190612fd8565b6004820160006113999190612fd8565b6005820160006113a99190612fd8565b50506008600760003373ffffffffffffffffffffffffffffffffffffffff1673ffffffffffffffffffffffffffffffffffffffff16815260200190815260200160002060008373ffffffffffffffffffffffffffffffffffffffff1673ffffffffffffffffffffffffffffffffffffffff16815260200190815260200160002060020160405161143991906142dc565b9081526020016040518091039020600080820160006101000a81549073ffffffffffffffffffffffffffffffffffffffff021916905560018201600090556002820160006114879190612fd8565b6003820160006114979190612fd8565b6004820160006114a79190612fd8565b6005820160006114b79190612fd8565b505050565b600d818051602081018201805184825260208301602085012081835280955050505050506000915054906101000a900460ff1681565b6060600660003373ffffffffffffffffffffffffffffffffffffffff1673ffffffffffffffffffffffffffffffffffffffff16815260200190815260200160002060060160009054906101000a900460ff16611583576040517f08c379a000000000000000000000000000000000000000000000000000000000815260040161157a90613d79565b60405180910390fd5b600073ffffffffffffffffffffffffffffffffffffffff163373ffffffffffffffffffffffffffffffffffffffff16036115f2576040517f08c379a00000000000000000000000000000000000000000000000000000000081526004016115e990613e0b565b60405180910390fd5b600a80548060200260200160405190810160405280929190818152602001828054801561163e57602002820191906000526020600020905b81548152602001906001019080831161162a575b5050505050905090565b600660003373ffffffffffffffffffffffffffffffffffffffff1673ffffffffffffffffffffffffffffffffffffffff16815260200190815260200160002060060160009054906101000a900460ff166116d7576040517f08c379a00000000000000000000000000000000000000000000000000000000081526004016116ce90613d79565b60405180910390fd5b600073ffffffffffffffffffffffffffffffffffffffff163373ffffffffffffffffffffffffffffffffffffffff1603611746576040517f08c379a000000000000000000000000000000000000000000000000000000000815260040161173d90613e0b565b60405180910390fd5b7f4140c73226c8ea512653d2920a7fbe10a0c0fe3c5f07aee8be2cad8b2b9a772f816040516117759190613826565b60405180910390a1600960003373ffffffffffffffffffffffffffffffffffffffff1673ffffffffffffffffffffffffffffffffffffffff168152602001908152602001600020600082815260200190815260200160002060006117d99190612fd8565b600a81815481106117ed576117ec6142f3565b5b9060005260206000200160009055600b600082815260200190815260200160002060006101000a81549060ff021916905550565b6008818051602081018201805184825260208301602085012081835280955050505050506000915090508060000160009054906101000a900473ffffffffffffffffffffffffffffffffffffffff169080600101549080600201805461188690613abf565b80601f01602080910402602001604051908101604052809291908181526020018280546118b290613abf565b80156118ff5780601f106118d4576101008083540402835291602001916118ff565b820191906000526020600020905b8154815290600101906020018083116118e257829003601f168201915b50505050509080600301805461191490613abf565b80601f016020809104026020016040519081016040528092919081815260200182805461194090613abf565b801561198d5780601f106119625761010080835404028352916020019161198d565b820191906000526020600020905b81548152906001019060200180831161197057829003601f168201915b5050505050908060040180546119a290613abf565b80601f01602080910402602001604051908101604052809291908181526020018280546119ce90613abf565b8015611a1b5780601f106119f057610100808354040283529160200191611a1b565b820191906000526020600020905b8154815290600101906020018083116119fe57829003601f168201915b505050505090806005018054611a3090613abf565b80601f0160208091040260200160405190810160405280929190818152602001828054611a5c90613abf565b8015611aa95780601f10611a7e57610100808354040283529160200191611aa9565b820191906000526020600020905b815481529060010190602001808311611a8c57829003601f168201915b5050505050905086565b600660003373ffffffffffffffffffffffffffffffffffffffff1673ffffffffffffffffffffffffffffffffffffffff16815260200190815260200160002060060160009054906101000a900460ff16611b42576040517f08c379a0000000000000000000000000000000000000000000000000000000008152600401611b3990613d79565b60405180910390fd5b600073ffffffffffffffffffffffffffffffffffffffff163373ffffffffffffffffffffffffffffffffffffffff1603611bb1576040517f08c379a0000000000000000000000000000000000000000000000000000000008152600401611ba890613e0b565b60405180910390fd5b600073ffffffffffffffffffffffffffffffffffffffff168573ffffffffffffffffffffffffffffffffffffffff1603611c20576040517f08c379a0000000000000000000000000000000000000000000000000000000008152600401611c179061436e565b60405180910390fd5b6000845111611c64576040517f08c379a0000000000000000000000000000000000000000000000000000000008152600401611c5b90614400565b60405180910390fd5b6000835111611ca8576040517f08c379a0000000000000000000000000000000000000000000000000000000008152600401611c9f9061446c565b60405180910390fd5b6000825111611cec576040517f08c379a0000000000000000000000000000000000000000000000000000000008152600401611ce3906144d8565b60405180910390fd5b6000815111611d30576040517f08c379a0000000000000000000000000000000000000000000000000000000008152600401611d2790614544565b60405180910390fd5b8473ffffffffffffffffffffffffffffffffffffffff167f71ae26cad02663e3d92efd6ec56031a80d74a20c0ab4183faa8bf262261c9baa60405160405180910390a260046000815480929190611d8690614593565b91905055506040518060c001604052808673ffffffffffffffffffffffffffffffffffffffff168152602001600454815260200185815260200184815260200183815260200182815250600760003373ffffffffffffffffffffffffffffffffffffffff1673ffffffffffffffffffffffffffffffffffffffff16815260200190815260200160002060008773ffffffffffffffffffffffffffffffffffffffff1673ffffffffffffffffffffffffffffffffffffffff16815260200190815260200160002060008201518160000160006101000a81548173ffffffffffffffffffffffffffffffffffffffff021916908373ffffffffffffffffffffffffffffffffffffffff160217905550602082015181600101556040820151816002019081611eb2919061411b565b506060820151816003019081611ec8919061411b565b506080820151816004019081611ede919061411b565b5060a0820151816005019081611ef4919061411b565b50905050600760003373ffffffffffffffffffffffffffffffffffffffff1673ffffffffffffffffffffffffffffffffffffffff16815260200190815260200160002060008673ffffffffffffffffffffffffffffffffffffffff1673ffffffffffffffffffffffffffffffffffffffff168152602001908152602001600020600885604051611f849190613a79565b90815260200160405180910390206000820160009054906101000a900473ffffffffffffffffffffffffffffffffffffffff168160000160006101000a81548173ffffffffffffffffffffffffffffffffffffffff021916908373ffffffffffffffffffffffffffffffffffffffff160217905550600182015481600101556002820181600201908161201791906145f1565b506003820181600301908161202c91906145f1565b506004820181600401908161204191906145f1565b506005820181600501908161205691906145f1565b509050505050505050565b600a818154811061207157600080fd5b906000526020600020016000915090505481565b6007602052816000526040600020602052806000526040600020600091509150508060000160009054906101000a900473ffffffffffffffffffffffffffffffffffffffff16908060010154908060020180546120e190613abf565b80601f016020809104026020016040519081016040528092919081815260200182805461210d90613abf565b801561215a5780601f1061212f5761010080835404028352916020019161215a565b820191906000526020600020905b81548152906001019060200180831161213d57829003601f168201915b50505050509080600301805461216f90613abf565b80601f016020809104026020016040519081016040528092919081815260200182805461219b90613abf565b80156121e85780601f106121bd576101008083540402835291602001916121e8565b820191906000526020600020905b8154815290600101906020018083116121cb57829003601f168201915b5050505050908060040180546121fd90613abf565b80601f016020809104026020016040519081016040528092919081815260200182805461222990613abf565b80156122765780601f1061224b57610100808354040283529160200191612276565b820191906000526020600020905b81548152906001019060200180831161225957829003601f168201915b50505050509080600501805461228b90613abf565b80601f01602080910402602001604051908101604052809291908181526020018280546122b790613abf565b80156123045780601f106122d957610100808354040283529160200191612304565b820191906000526020600020905b8154815290600101906020018083116122e757829003601f168201915b5050505050905086565b60018060000160009054906101000a900473ffffffffffffffffffffffffffffffffffffffff16908060010154908060020160009054906101000a900460ff16905083565b600660003373ffffffffffffffffffffffffffffffffffffffff1673ffffffffffffffffffffffffffffffffffffffff16815260200190815260200160002060060160009054906101000a900460ff166123e2576040517f08c379a00000000000000000000000000000000000000000000000000000000081526004016123d990613d79565b60405180910390fd5b600073ffffffffffffffffffffffffffffffffffffffff163373ffffffffffffffffffffffffffffffffffffffff1603612451576040517f08c379a000000000000000000000000000000000000000000000000000000000815260040161244890613e0b565b60405180910390fd5b6000429050807f9376d1f5ae2781161467d7ecca7bb235a2f861272b40eca70ea487d3005004d060405160405180910390a281600960003373ffffffffffffffffffffffffffffffffffffffff1673ffffffffffffffffffffffffffffffffffffffff168152602001908152602001600020600083815260200190815260200160002090816124e0919061411b565b50600a8190806001815401808255809150506001900390600052602060002001600090919091909150556001600b600083815260200190815260200160002060006101000a81548160ff0219169083151502179055505050565b600073ffffffffffffffffffffffffffffffffffffffff163373ffffffffffffffffffffffffffffffffffffffff16036125a9576040517f08c379a00000000000000000000000000000000000000000000000000000000081526004016125a090614725565b60405180910390fd5b60008054906101000a900473ffffffffffffffffffffffffffffffffffffffff1673ffffffffffffffffffffffffffffffffffffffff163373ffffffffffffffffffffffffffffffffffffffff1603612637576040517f08c379a000000000000000000000000000000000000000000000000000000000815260040161262e906147b7565b60405180910390fd5b600660003373ffffffffffffffffffffffffffffffffffffffff1673ffffffffffffffffffffffffffffffffffffffff16815260200190815260200160002060060160009054906101000a900460ff166126c6576040517f08c379a00000000000000000000000000000000000000000000000000000000081526004016126bd90614849565b60405180910390fd5b600085511161270a576040517f08c379a000000000000000000000000000000000000000000000000000000000815260040161270190614400565b60405180910390fd5b600084511161274e576040517f08c379a00000000000000000000000000000000000000000000000000000000081526004016127459061446c565b60405180910390fd5b6000835111612792576040517f08c379a0000000000000000000000000000000000000000000000000000000008152600401612789906144d8565b60405180910390fd5b60008251116127d6576040517f08c379a00000000000000000000000000000000000000000000000000000000081526004016127cd90614544565b60405180910390fd5b6000602060ff161161281d576040517f08c379a0000000000000000000000000000000000000000000000000000000008152600401612814906144d8565b60405180910390fd5b6000424460405160200161283292919061488a565b6040516020818303038152906040528051906020012060001c60001b9050600082826040516020016128659291906148b6565b6040516020818303038152906040528051906020012090503373ffffffffffffffffffffffffffffffffffffffff167f561138658ca49a8540dc70dcfe64c9026c1c5b9344642242dd6562970f9c127860405160405180910390a26040518060e001604052803373ffffffffffffffffffffffffffffffffffffffff16815260200188815260200187815260200186815260200185815260200182815260200160011515815250600660003373ffffffffffffffffffffffffffffffffffffffff1673ffffffffffffffffffffffffffffffffffffffff16815260200190815260200160002060008201518160000160006101000a81548173ffffffffffffffffffffffffffffffffffffffff021916908373ffffffffffffffffffffffffffffffffffffffff16021790555060208201518160010190816129a7919061411b565b5060408201518160020190816129bd919061411b565b5060608201518160030190816129d3919061411b565b5060808201518160040190816129e9919061411b565b5060a0820151816005015560c08201518160060160006101000a81548160ff02191690831515021790555090505050505050505050565b60056020528060005260406000206000915090508060000160009054906101000a900473ffffffffffffffffffffffffffffffffffffffff16908060010154908060020160009054906101000a900460ff16905083565b60008054906101000a900473ffffffffffffffffffffffffffffffffffffffff1673ffffffffffffffffffffffffffffffffffffffff163373ffffffffffffffffffffffffffffffffffffffff1614612b05576040517f08c379a0000000000000000000000000000000000000000000000000000000008152600401612afc90613b62565b60405180910390fd5b600073ffffffffffffffffffffffffffffffffffffffff163373ffffffffffffffffffffffffffffffffffffffff1603612b74576040517f08c379a0000000000000000000000000000000000000000000000000000000008152600401612b6b90613b62565b60405180910390fd5b600560008060009054906101000a900473ffffffffffffffffffffffffffffffffffffffff1673ffffffffffffffffffffffffffffffffffffffff1673ffffffffffffffffffffffffffffffffffffffff168152602001908152602001600020600080820160006101000a81549073ffffffffffffffffffffffffffffffffffffffff021916905560018201600090556002820160006101000a81549060ff021916905550508073ffffffffffffffffffffffffffffffffffffffff167fac9a252a3ed2d3fcc198677953ffe98ac492e191a4605978c655f8ce4ae8067660405160405180910390a2806000806101000a81548173ffffffffffffffffffffffffffffffffffffffff021916908373ffffffffffffffffffffffffffffffffffffffff160217905550600560008060009054906101000a900473ffffffffffffffffffffffffffffffffffffffff1673ffffffffffffffffffffffffffffffffffffffff1673ffffffffffffffffffffffffffffffffffffffff1681526020019081526020016000205050565b600c818051602081018201805184825260208301602085012081835280955050505050506000915090505481565b60066020528060005260406000206000915090508060000160009054906101000a900473ffffffffffffffffffffffffffffffffffffffff1690806001018054612d7890613abf565b80601f0160208091040260200160405190810160405280929190818152602001828054612da490613abf565b8015612df15780601f10612dc657610100808354040283529160200191612df1565b820191906000526020600020905b815481529060010190602001808311612dd457829003601f168201915b505050505090806002018054612e0690613abf565b80601f0160208091040260200160405190810160405280929190818152602001828054612e3290613abf565b8015612e7f5780601f10612e5457610100808354040283529160200191612e7f565b820191906000526020600020905b815481529060010190602001808311612e6257829003601f168201915b505050505090806003018054612e9490613abf565b80601f0160208091040260200160405190810160405280929190818152602001828054612ec090613abf565b8015612f0d5780601f10612ee257610100808354040283529160200191612f0d565b820191906000526020600020905b815481529060010190602001808311612ef057829003601f168201915b505050505090806004018054612f2290613abf565b80601f0160208091040260200160405190810160405280929190818152602001828054612f4e90613abf565b8015612f9b5780601f10612f7057610100808354040283529160200191612f9b565b820191906000526020600020905b815481529060010190602001808311612f7e57829003601f168201915b5050505050908060050154908060060160009054906101000a900460ff16905087565b604051806040016040528060608152602001606081525090565b508054612fe490613abf565b6000825580601f10612ff65750613015565b601f0160209004906000526020600020908101906130149190613018565b5b50565b5b80821115613031576000816000905550600101613019565b5090565b6000604051905090565b600080fd5b600080fd5b600080fd5b600080fd5b6000601f19601f8301169050919050565b7f4e487b7100000000000000000000000000000000000000000000000000000000600052604160045260246000fd5b61309c82613053565b810181811067ffffffffffffffff821117156130bb576130ba613064565b5b80604052505050565b60006130ce613035565b90506130da8282613093565b919050565b600067ffffffffffffffff8211156130fa576130f9613064565b5b61310382613053565b9050602081019050919050565b82818337600083830152505050565b600061313261312d846130df565b6130c4565b90508281526020810184848401111561314e5761314d61304e565b5b613159848285613110565b509392505050565b600082601f83011261317657613175613049565b5b813561318684826020860161311f565b91505092915050565b6000602082840312156131a5576131a461303f565b5b600082013567ffffffffffffffff8111156131c3576131c2613044565b5b6131cf84828501613161565b91505092915050565b600081519050919050565b600082825260208201905092915050565b60005b838110156132125780820151818401526020810190506131f7565b60008484015250505050565b6000613229826131d8565b61323381856131e3565b93506132438185602086016131f4565b61324c81613053565b840191505092915050565b60006040830160008301518482036000860152613274828261321e565b9150506020830151848203602086015261328e828261321e565b9150508091505092915050565b600060208201905081810360008301526132b58184613257565b905092915050565b6000819050919050565b6132d0816132bd565b81146132db57600080fd5b50565b6000813590506132ed816132c7565b92915050565b6000602082840312156133095761330861303f565b5b6000613317848285016132de565b91505092915050565b600082825260208201905092915050565b600061333c826131d8565b6133468185613320565b93506133568185602086016131f4565b61335f81613053565b840191505092915050565b600060408201905081810360008301526133848185613331565b905081810360208301526133988184613331565b90509392505050565b6000819050919050565b6133b4816133a1565b81146133bf57600080fd5b50565b6000813590506133d1816133ab565b92915050565b600080604083850312156133ee576133ed61303f565b5b60006133fc858286016133c2565b925050602061340d858286016133c2565b9150509250929050565b600080600080608085870312156134315761343061303f565b5b600085013567ffffffffffffffff81111561344f5761344e613044565b5b61345b87828801613161565b945050602061346c878288016132de565b935050604085013567ffffffffffffffff81111561348d5761348c613044565b5b61349987828801613161565b925050606085013567ffffffffffffffff8111156134ba576134b9613044565b5b6134c687828801613161565b91505092959194509250565b60008115159050919050565b6134e7816134d2565b82525050565b600060208201905061350260008301846134de565b92915050565b60006020828403121561351e5761351d61303f565b5b600061352c848285016133c2565b91505092915050565b600073ffffffffffffffffffffffffffffffffffffffff82169050919050565b600061356082613535565b9050919050565b61357081613555565b811461357b57600080fd5b50565b60008135905061358d81613567565b92915050565b6000602082840312156135a9576135a861303f565b5b60006135b78482850161357e565b91505092915050565b600081519050919050565b600082825260208201905092915050565b6000819050602082019050919050565b6135f5816132bd565b82525050565b600061360783836135ec565b60208301905092915050565b6000602082019050919050565b600061362b826135c0565b61363581856135cb565b9350613640836135dc565b8060005b8381101561367157815161365888826135fb565b975061366383613613565b925050600181019050613644565b5085935050505092915050565b600060208201905081810360008301526136988184613620565b905092915050565b6136a981613555565b82525050565b6136b8816132bd565b82525050565b600060c0820190506136d360008301896136a0565b6136e060208301886136af565b81810360408301526136f28187613331565b905081810360608301526137068186613331565b9050818103608083015261371a8185613331565b905081810360a083015261372e8184613331565b9050979650505050505050565b600080600080600060a086880312156137575761375661303f565b5b60006137658882890161357e565b955050602086013567ffffffffffffffff81111561378657613785613044565b5b61379288828901613161565b945050604086013567ffffffffffffffff8111156137b3576137b2613044565b5b6137bf88828901613161565b935050606086013567ffffffffffffffff8111156137e0576137df613044565b5b6137ec88828901613161565b925050608086013567ffffffffffffffff81111561380d5761380c613044565b5b61381988828901613161565b9150509295509295909350565b600060208201905061383b60008301846136af565b92915050565b600080604083850312156138585761385761303f565b5b60006138668582860161357e565b92505060206138778582860161357e565b9150509250929050565b61388a816133a1565b82525050565b60006060820190506138a560008301866136a0565b6138b26020830185613881565b6138bf60408301846134de565b949350505050565b600080600080600060a086880312156138e3576138e261303f565b5b600086013567ffffffffffffffff81111561390157613900613044565b5b61390d88828901613161565b955050602086013567ffffffffffffffff81111561392e5761392d613044565b5b61393a88828901613161565b945050604086013567ffffffffffffffff81111561395b5761395a613044565b5b61396788828901613161565b935050606086013567ffffffffffffffff81111561398857613987613044565b5b61399488828901613161565b92505060806139a5888289016133c2565b9150509295509295909350565b600060e0820190506139c7600083018a6136a0565b81810360208301526139d98189613331565b905081810360408301526139ed8188613331565b90508181036060830152613a018187613331565b90508181036080830152613a158186613331565b9050613a2460a0830185613881565b613a3160c08301846134de565b98975050505050505050565b600081905092915050565b6000613a53826131d8565b613a5d8185613a3d565b9350613a6d8185602086016131f4565b80840191505092915050565b6000613a858284613a48565b915081905092915050565b7f4e487b7100000000000000000000000000000000000000000000000000000000600052602260045260246000fd5b60006002820490506001821680613ad757607f821691505b602082108103613aea57613ae9613a90565b5b50919050565b7f4f6e6c792073797374656d206f776e65722063616e20706572666f726d20746860008201527f697320616374696f6e0000000000000000000000000000000000000000000000602082015250565b6000613b4c602983613320565b9150613b5782613af0565b604082019050919050565b60006020820190508181036000830152613b7b81613b3f565b9050919050565b6000602082019050613b976000830184613881565b92915050565b7f496e76616c69642070617373776f7264206f66206163636f756e74206164647260008201527f6573730000000000000000000000000000000000000000000000000000000000602082015250565b6000613bf9602383613320565b9150613c0482613b9d565b604082019050919050565b60006020820190508181036000830152613c2881613bec565b9050919050565b7f50617373776f72642073686f756c64206e6f7420626520656d70747900000000600082015250565b6000613c65601c83613320565b9150613c7082613c2f565b602082019050919050565b60006020820190508181036000830152613c9481613c58565b9050919050565b7f4e6f74206c6f6767656420696e00000000000000000000000000000000000000600082015250565b6000613cd1600d83613320565b9150613cdc82613c9b565b602082019050919050565b60006020820190508181036000830152613d0081613cc4565b9050919050565b7f4f6e6c79206d616e7566616374757265722063616e206164642072657461696c60008201527f65722064657461696c7300000000000000000000000000000000000000000000602082015250565b6000613d63602a83613320565b9150613d6e82613d07565b604082019050919050565b60006020820190508181036000830152613d9281613d56565b9050919050565b7f4f6e6c79206d616e7566616374757265722063616e20706572666f726d20746860008201527f697320616374696f6e0000000000000000000000000000000000000000000000602082015250565b6000613df5602983613320565b9150613e0082613d99565b604082019050919050565b60006020820190508181036000830152613e2481613de8565b9050919050565b7f49442069736e27742073746f7265640000000000000000000000000000000000600082015250565b6000613e61600f83613320565b9150613e6c82613e2b565b602082019050919050565b60006020820190508181036000830152613e9081613e54565b9050919050565b7f4974656d206e616d652063616e6e6f7420626520656d70747900000000000000600082015250565b6000613ecd601983613320565b9150613ed882613e97565b602082019050919050565b60006020820190508181036000830152613efc81613ec0565b9050919050565b7f4465736372697074696f6e2063616e6e6f7420626520656d7074790000000000600082015250565b6000613f39601b83613320565b9150613f4482613f03565b602082019050919050565b60006020820190508181036000830152613f6881613f2c565b9050919050565b60008190508160005260206000209050919050565b60006020601f8301049050919050565b600082821b905092915050565b600060088302613fd17fffffffffffffffffffffffffffffffffffffffffffffffffffffffffffffffff82613f94565b613fdb8683613f94565b95508019841693508086168417925050509392505050565b6000819050919050565b600061401861401361400e846132bd565b613ff3565b6132bd565b9050919050565b6000819050919050565b61403283613ffd565b61404661403e8261401f565b848454613fa1565b825550505050565b600090565b61405b61404e565b614066818484614029565b505050565b5b8181101561408a5761407f600082614053565b60018101905061406c565b5050565b601f8211156140cf576140a081613f6f565b6140a984613f84565b810160208510156140b8578190505b6140cc6140c485613f84565b83018261406b565b50505b505050565b600082821c905092915050565b60006140f2600019846008026140d4565b1980831691505092915050565b600061410b83836140e1565b9150826002028217905092915050565b614124826131d8565b67ffffffffffffffff81111561413d5761413c613064565b5b6141478254613abf565b61415282828561408e565b600060209050601f8311600181146141855760008415614173578287015190505b61417d85826140ff565b8655506141e5565b601f19841661419386613f6f565b60005b828110156141bb57848901518255600182019150602085019450602081019050614196565b868310156141d857848901516141d4601f8916826140e1565b8355505b6001600288020188555050505b505050505050565b7f52657461696c6572206e6f7420666f756e640000000000000000000000000000600082015250565b6000614223601283613320565b915061422e826141ed565b602082019050919050565b6000602082019050818103600083015261425281614216565b9050919050565b6000815461426681613abf565b6142708186613a3d565b9450600182166000811461428b57600181146142a0576142d3565b60ff19831686528115158202860193506142d3565b6142a985613f6f565b60005b838110156142cb578154818901526001820191506020810190506142ac565b838801955050505b50505092915050565b60006142e88284614259565b915081905092915050565b7f4e487b7100000000000000000000000000000000000000000000000000000000600052603260045260246000fd5b7f52657461696c657220616464726573732063616e6e6f74206265207a65726f00600082015250565b6000614358601f83613320565b915061436382614322565b602082019050919050565b600060208201905081810360008301526143878161434b565b9050919050565b7f4d616e756661637475726572206e616d652063616e6e6f7420626520656d707460008201527f7900000000000000000000000000000000000000000000000000000000000000602082015250565b60006143ea602183613320565b91506143f58261438e565b604082019050919050565b60006020820190508181036000830152614419816143dd565b9050919050565b7f4c6f636174696f6e206e616d652063616e6e6f7420626520656d707479000000600082015250565b6000614456601d83613320565b915061446182614420565b602082019050919050565b6000602082019050818103600083015261448581614449565b9050919050565b7f456d61696c20616464726573732063616e6e6f7420626520656d707479000000600082015250565b60006144c2601d83613320565b91506144cd8261448c565b602082019050919050565b600060208201905081810360008301526144f1816144b5565b9050919050565b7f50686f6e65206e756d6265722063616e6e6f7420626520656d70747900000000600082015250565b600061452e601c83613320565b9150614539826144f8565b602082019050919050565b6000602082019050818103600083015261455d81614521565b9050919050565b7f4e487b7100000000000000000000000000000000000000000000000000000000600052601160045260246000fd5b600061459e826132bd565b91507fffffffffffffffffffffffffffffffffffffffffffffffffffffffffffffffff82036145d0576145cf614564565b5b600182019050919050565b6000815490506145ea81613abf565b9050919050565b8181036145ff5750506146d7565b614608826145db565b67ffffffffffffffff81111561462157614620613064565b5b61462b8254613abf565b61463682828561408e565b6000601f8311600181146146655760008415614653578287015490505b61465d85826140ff565b8655506146d0565b601f19841661467387613f6f565b965061467e86613f6f565b60005b828110156146a657848901548255600182019150600185019450602081019050614681565b868310156146c357848901546146bf601f8916826140e1565b8355505b6001600288020188555050505b5050505050505b565b7f41646472657373206e6f742076616c6964000000000000000000000000000000600082015250565b600061470f601183613320565b915061471a826146d9565b602082019050919050565b6000602082019050818103600083015261473e81614702565b9050919050565b7f416464726573732073686f756c646e27742062652073797374656d206f776e6560008201527f7200000000000000000000000000000000000000000000000000000000000000602082015250565b60006147a1602183613320565b91506147ac82614745565b604082019050919050565b600060208201905081810360008301526147d081614794565b9050919050565b7f4d616e75666163747572657220697320616c726561647920726567697374657260008201527f6564000000000000000000000000000000000000000000000000000000000000602082015250565b6000614833602283613320565b915061483e826147d7565b604082019050919050565b6000602082019050818103600083015261486281614826565b9050919050565b6000819050919050565b61488461487f826132bd565b614869565b82525050565b60006148968285614873565b6020820191506148a68284614873565b6020820191508190509392505050565b60006040820190506148cb6000830185613881565b6148d86020830184613881565b939250505056fea26469706673582212208e1699535b9771bdf38e92b956049ada5bb50e51f62506ef17d9923f0188392964736f6c63430008130033",
  "immutableReferences": {},
  "source": "// SPDX-License-Identifier: MIT\npragma solidity ^0.8.19;\n\ncontract QrCode {\n    error HashIsntStored(uint blockId);\n\n    event ManufacturerAdded(address indexed manufacturer);\n    event RetailerAdded(address indexed retailer);\n    event RetailerRemoved(address indexed retailer);\n\n    event PasswordChanged(address indexed admin);\n    event ownershipTransferred(address indexed newAdmin);\n\n    event ItemAdded_M(uint256 indexed id);\n    event ItemDetailsUpdated_M(\n        uint256 indexed id,\n        string itemName,\n        string description\n    );\n    event ItemRecorded_M(uint256 indexed id);\n    event qrHashStored(uint indexed timestamp);\n    // event ItemNotFound(string qrHash);\n    event qrHashDeleted(uint256 _blockId);\n\n    struct Manufacturer {\n        address manufacturer;\n        string name;\n        string location;\n        string email;\n        string phoneNumber;\n        bytes32 password;\n        bool isSignedUp;\n    }\n\n    struct Retailer {\n        address retailer;\n        uint256 retailerID;\n        string name;\n        string location;\n        string email;\n        string phoneNumber;\n    }\n\n    struct ItemDetails {\n        string itemName;\n        string description;\n    }\n\n    //@dev create system account structure\n    struct SystemOwner {\n        address sysOwner;\n        bytes32 password /*audit*/;\n        bool isLogin;\n    }\n\n    address private owner;\n    SystemOwner public sysowner;\n\n    uint256 private s_retailerID;\n\n    mapping(address => SystemOwner) public sysOwnerMap;\n\n    mapping(address => Manufacturer) public manufacturerDetails;\n    mapping(address => mapping(address => Retailer))\n        public manufacturerToRetailerDetails;\n    mapping(string => Retailer) public retailerDetails;\n\n    //STORING\n    mapping(address => mapping(uint256 => string))\n        private qrHashMapByManufacturer; // stored by manufacturer when generating hash + id\n\n    uint256[] public manufacturerIDHashArr; //scanned by only manufacturer\n    mapping(uint => bool) private storedIDs; //just stored\n\n    //MATCHING\n    mapping(string => uint256) public matchHashToId; //used by users when scanning\n\n    mapping(string => bool) public matchedItems; //matched hash to items\n\n    mapping(uint256 => ItemDetails) public itemDetails;\n\n    constructor() {\n        owner = msg.sender;\n        sysowner = SystemOwner(owner, keccak256(abi.encode((\"admin\"))), false);\n        sysOwnerMap[owner] = sysowner;\n    }\n\n    //@dev Josephat only owner condition\n    modifier onlySysOwner() {\n        require(\n            msg.sender == owner,\n            \"Only system owner can perform this action\"\n        );\n        require(\n            msg.sender != address(0),\n            \"Only system owner can perform this action\"\n        );\n        _;\n    }\n\n    modifier onlyManufacturer() {\n        require(\n            manufacturerDetails[msg.sender].isSignedUp,\n            \"Only manufacturer can add retailer details\"\n        );\n        require(\n            msg.sender != address(0),\n            \"Only manufacturer can perform this action\"\n        );\n        _;\n    }\n\n    /*@dev System Owner functions*/\n    function loginSysOwner(\n        bytes32 _password\n    ) external onlySysOwner returns (bool) {\n        require(\n            bytes32(sysOwnerMap[msg.sender].password) ==\n                keccak256(abi.encode(_password)),\n            \"Invalid password of account address\"\n        );\n        sysOwnerMap[msg.sender].isLogin = true;\n        return true;\n    }\n\n    function changePassword(\n        bytes32 oldPassword,\n        bytes32 _newPassword\n    ) external onlySysOwner {\n        require(\n            bytes32(sysOwnerMap[msg.sender].password) ==\n                keccak256(abi.encode(oldPassword)),\n            \"Invalid password of account address\"\n        );\n        require(_newPassword.length > 0, \"Password should not be empty\");\n        require(\n            bytes32(sysOwnerMap[msg.sender].password) !=\n                keccak256(abi.encode(_newPassword)),\n            \"Invalid password of account address\"\n        );\n        require(sysOwnerMap[msg.sender].isLogin == true, \"Not logged in\");\n\n        emit PasswordChanged(msg.sender);\n        // SystemOwner storage newSystemPassword = SystemOwner(,keccak256(abi.encode(_newPassword)),);\n        // sysowner = SystemOwner(,keccak256(abi.encode(_newPassword)),);\n        sysOwnerMap[msg.sender].password = _newPassword;\n    }\n\n    function transferOwnership(address _address) external onlySysOwner {\n        delete sysOwnerMap[owner];\n        emit ownershipTransferred(_address);\n        owner = _address;\n        sysOwnerMap[owner];\n    }\n\n    /*@dev Manufacturer functions*/\n    function signUp(\n        string memory _manfName,\n        string memory _location,\n        string memory _email,\n        string memory _phoneNumber,\n        bytes32 _password\n    ) external {\n        require(msg.sender != address(0), \"Address not valid\");\n        require(msg.sender != owner, \"Address shouldn't be system owner\");\n        require(\n            manufacturerDetails[msg.sender].isSignedUp,\n            \"Manufacturer is already registered\"\n        );\n        require(\n            bytes(_manfName).length > 0,\n            \"Manufacturer name cannot be empty\"\n        );\n        require(bytes(_location).length > 0, \"Location name cannot be empty\");\n        require(bytes(_email).length > 0, \"Email address cannot be empty\");\n        require(bytes(_phoneNumber).length > 0, \"Phone number cannot be empty\");\n        require(_password.length > 0, \"Email address cannot be empty\");\n\n        // Generate a salt (you can use a random number or a unique value)\n        bytes32 salt = bytes32(\n            uint256(\n                keccak256(abi.encodePacked(block.timestamp, block.prevrandao))\n            )\n        );\n\n        // Hash the password with the salt\n        bytes32 passwordHash = keccak256(abi.encode(_password, salt));\n\n        emit ManufacturerAdded(msg.sender);\n        manufacturerDetails[msg.sender] = Manufacturer(\n            msg.sender,\n            _manfName,\n            _location,\n            _email,\n            _phoneNumber,\n            passwordHash,\n            true\n        );\n    }\n\n    function addRetailerInfo(\n        address _retailer,\n        string memory _name,\n        string memory _location,\n        string memory _email,\n        string memory _phoneNumber\n    ) external onlyManufacturer {\n        require(_retailer != address(0), \"Retailer address cannot be zero\");\n        require(bytes(_name).length > 0, \"Manufacturer name cannot be empty\");\n        require(bytes(_location).length > 0, \"Location name cannot be empty\");\n        require(bytes(_email).length > 0, \"Email address cannot be empty\");\n        require(bytes(_phoneNumber).length > 0, \"Phone number cannot be empty\");\n\n        emit RetailerAdded(_retailer);\n        s_retailerID++;\n        manufacturerToRetailerDetails[msg.sender][_retailer] = Retailer(\n            _retailer,\n            s_retailerID,\n            _name,\n            _location,\n            _email,\n            _phoneNumber\n        );\n        retailerDetails[_name] = manufacturerToRetailerDetails[msg.sender][\n            _retailer\n        ];\n    }\n\n    function removeRetailer(address _retailer) external onlyManufacturer {\n        require(\n            manufacturerToRetailerDetails[msg.sender][_retailer].retailer !=\n                address(0),\n            \"Retailer not found\"\n        );\n        emit RetailerRemoved(_retailer);\n        delete manufacturerToRetailerDetails[msg.sender][_retailer];\n        delete retailerDetails[\n            manufacturerToRetailerDetails[msg.sender][_retailer].name\n        ];\n    }\n\n    function storeQrHash(string memory _qrHash) external onlyManufacturer {\n        uint timestamp = block.timestamp;\n        emit qrHashStored(timestamp);\n        qrHashMapByManufacturer[msg.sender][timestamp] = _qrHash;\n        manufacturerIDHashArr.push(timestamp);\n        storedIDs[timestamp] = true;\n    }\n\n    function deleteQrHash(uint _blockId) external onlyManufacturer {\n        emit qrHashDeleted(_blockId);\n        delete qrHashMapByManufacturer[msg.sender][_blockId];\n        delete manufacturerIDHashArr[_blockId];\n        delete storedIDs[_blockId];\n    }\n\n    //@dev returns qrcodeHash array to the manufacturer frontend\n    function getManfItemIDList()\n        public\n        view\n        onlyManufacturer\n        returns (uint256[] memory)\n    {\n        return manufacturerIDHashArr;\n    }\n\n    //@dev TO BE REVIEWEDDD!! views qrcodeHash and ID one by one. Used when manf wants to match stored ids & hashes to every item\n    function getQrHashAndID()\n        private\n        view\n        onlyManufacturer\n        returns (string memory _qrHash, uint256 _blockId)\n    {\n        // uint256[] memory ids = getManfItemIDList(); //gets list of id's; takes one and puts it to the qrHash mapping to get its corresponding hash which will then be used to match items\n\n        _qrHash = qrHashMapByManufacturer[msg.sender][_blockId];\n        return (_qrHash, _blockId); //used at addItemDetails\n    }\n\n    /*@dev matches the stored hashes to each item & returns a bool for evidence */\n    function addItemDetails(\n        string memory _qrHash,\n        uint256 _blockId,\n        string memory _itemName,\n        string memory _description\n    ) external onlyManufacturer {\n        // require(\n        //     compareStrings(\n        //         qrHashMapByManufacturer[msg.sender][_blockId],\n        //         _qrHash\n        //     ),\n        //     \"Hash isn't stored\"\n        // );\n        // require(manufacturerIDHashArr[_blockId], \"ID isn't stored\");\n        require(storedIDs[_blockId] == true, \"ID isn't stored\");\n\n        require(bytes(_itemName).length > 0, \"Item name cannot be empty\");\n        require(bytes(_description).length > 0, \"Description cannot be empty\");\n\n        emit ItemAdded_M(_blockId);\n        emit ItemDetailsUpdated_M(_blockId, _itemName, _description);\n        emit ItemRecorded_M(_blockId);\n\n        itemDetails[_blockId] = ItemDetails(_itemName, _description);\n        matchHashToId[_qrHash] = _blockId;\n        matchedItems[_qrHash] = true;\n    }\n\n    function scanItem(string memory _qrHash) external view returns (bool) {\n        if (matchedItems[_qrHash]) {\n            return true;\n        } else {\n            return false;\n        }\n    }\n\n    function moreDetailsForScannedItem(\n        string memory _qrHash\n    ) external view returns (ItemDetails memory) {\n        uint id = matchHashToId[_qrHash];\n        return itemDetails[id];\n    }\n\n    // @dev Josephat helpers Functions\n\n    // Cannot directly compare strings in Solidity\n    // This function hashes the 2 strings and then compares the 2 hashes\n    function compareStrings(\n        string memory a,\n        string memory b\n    ) internal pure returns (bool) {\n        return keccak256(abi.encodePacked(a)) == keccak256(abi.encodePacked(b));\n    }\n}\n",
  "sourcePath": "/home/temba/finalHashthonAlcoshield/AlcoShield/contracts/QrCode.sol",
  "compiler": {
    "name": "solc",
    "version": "0.8.19+commit.7dd6d404.Emscripten.clang"
  },
  "schemaVersion": "3.4.16",
  "updatedAt": "2024-02-17T05:48:41.218Z",
  "networkType": "ethereum",
  "devdoc": {
    "kind": "dev",
    "methods": {},
    "version": 1
  },
  "userdoc": {
    "kind": "user",
    "methods": {},
    "version": 1
  }
}